{
  "contractName": "Appendix3",
  "abi": [
    {
      "inputs": [
        {
          "name": "req1val",
          "type": "uint256"
        },
        {
          "name": "req2val",
          "type": "uint256"
        }
      ],
      "payable": false,
      "stateMutability": "nonpayable",
      "type": "constructor"
    },
    {
      "constant": false,
      "inputs": [
        {
          "name": "req1",
          "type": "uint256"
        },
        {
          "name": "req2",
          "type": "uint256"
        }
      ],
      "name": "checkRequirements",
      "outputs": [
        {
          "name": "",
          "type": "bool"
        }
      ],
      "payable": false,
      "stateMutability": "nonpayable",
      "type": "function"
    }
  ],
  "bytecode": "0x608060405234801561001057600080fd5b506040516040806101bf8339810180604052810190808051906020019092919080519060200190929190505050600160008390806001815401808255809150509060018203906000526020600020016000909192909190915055505060016000829080600181540180825580915050906001820390600052602060002001600090919290919091505550505050610113806100ac6000396000f300608060405260043610603f576000357c0100000000000000000000000000000000000000000000000000000000900463ffffffff168063ff8b9a40146044575b600080fd5b348015604f57600080fd5b50607660048036038101908080359060200190929190803590602001909291905050506090565b604051808215151515815260200191505060405180910390f35b60008260008081548110151560a157fe5b906000526020600020015410801560d05750816000600181548110151560c357fe5b9060005260206000200154115b1560dc576001905060e1565b600090505b929150505600a165627a7a7230582000fc3225c812b5d6d6f84ae74b1d5cac4c6774338cc1a2eb575367d1171bc9e20029",
  "source": "pragma solidity^0.4.20;\n\ncontract Appendix3 {\n\n    uint[] requirements;\n\n    constructor(uint req1val, uint req2val) public {\n        requirements.push(req1val) -1;\n        requirements.push(req2val) -1;\n    }\n\n    function checkRequirements(uint req1, uint req2) external returns(bool) {\n        if((requirements[0] < req1) && (requirements[1] > req2)) {\n            return true;\n        }\n        else {\n            return false;\n        }\n    }\n}",
  "sourcePath": "/home/anna/Desktop/secondStage/project1folder/contracts/Appendix3.sol",
  "compiler": {
    "name": "solc",
    "version": "0.4.24+commit.e67f0147.Emscripten.clang"
  },
  "schemaVersion": "2.0.0",
  "updatedAt": "2018-10-05T11:10:51.785Z"
}