{
  "contractName": "Appendix2",
  "abi": [
    {
      "inputs": [],
      "payable": false,
      "stateMutability": "nonpayable",
      "type": "constructor"
    },
    {
      "anonymous": false,
      "inputs": [
        {
          "indexed": false,
          "name": "_message",
          "type": "string"
        }
      ],
      "name": "sendPenaltyFail",
      "type": "event"
    },
    {
      "anonymous": false,
      "inputs": [
        {
          "indexed": false,
          "name": "_message",
          "type": "string"
        },
        {
          "indexed": false,
          "name": "penalty",
          "type": "uint256"
        }
      ],
      "name": "sendPenaltySuccess",
      "type": "event"
    },
    {
      "constant": false,
      "inputs": [],
      "name": "getBalance",
      "outputs": [
        {
          "name": "",
          "type": "uint256"
        }
      ],
      "payable": false,
      "stateMutability": "nonpayable",
      "type": "function"
    },
    {
      "constant": false,
      "inputs": [
        {
          "name": "material",
          "type": "string"
        },
        {
          "name": "your_temperature",
          "type": "int256"
        }
      ],
      "name": "checkThreshold",
      "outputs": [
        {
          "name": "",
          "type": "uint256"
        }
      ],
      "payable": false,
      "stateMutability": "nonpayable",
      "type": "function"
    },
    {
      "constant": false,
      "inputs": [
        {
          "name": "penalty",
          "type": "uint256"
        }
      ],
      "name": "sendPenalty",
      "outputs": [
        {
          "name": "",
          "type": "bool"
        }
      ],
      "payable": true,
      "stateMutability": "payable",
      "type": "function"
    }
  ],
  "bytecode": "0x60806040527343439cca7e74523262b2c757c874aa09969c1c9e600160006101000a81548173ffffffffffffffffffffffffffffffffffffffff021916908373ffffffffffffffffffffffffffffffffffffffff16021790555034801561006557600080fd5b5060008060006022600060405180807f737465656c0000000000000000000000000000000000000000000000000000008152506005019050908152602001604051809103902081905550600c600060405180807f706c61737469630000000000000000000000000000000000000000000000000081525060070190509081526020016040518091039020819055506006600060405180807f776f6f6400000000000000000000000000000000000000000000000000000000815250600401905090815260200160405180910390208190555060059250600260007358a5727f2e956d3017c61135b7a9ff56b5b22b7673ffffffffffffffffffffffffffffffffffffffff1673ffffffffffffffffffffffffffffffffffffffff168152602001908152602001600020915060648260010181905550600260003273ffffffffffffffffffffffffffffffffffffffff1673ffffffffffffffffffffffffffffffffffffffff1681526020019081526020016000209050606481600101819055505050506104c0806101f76000396000f300608060405260043610610057576000357c0100000000000000000000000000000000000000000000000000000000900463ffffffff16806312065fe01461005c5780633fd2a06614610087578063a51af01b146100bf575b600080fd5b34801561006857600080fd5b50610071610146565b6040518082815260200191505060405180910390f35b6100a560048036038101908080359060200190929190505050610190565b604051808215151515815260200191505060405180910390f35b3480156100cb57600080fd5b50610130600480360381019080803590602001908201803590602001908080601f0160208091040260200160405190810160405280939291908181526020018383808284378201915050505050509192919290803590602001909291905050506103d7565b6040518082815260200191505060405180910390f35b6000600260003273ffffffffffffffffffffffffffffffffffffffff1673ffffffffffffffffffffffffffffffffffffffff16815260200190815260200160002060010154905090565b6000600160009054906101000a900473ffffffffffffffffffffffffffffffffffffffff1673ffffffffffffffffffffffffffffffffffffffff163273ffffffffffffffffffffffffffffffffffffffff161415156101ee57600080fd5b81600260003273ffffffffffffffffffffffffffffffffffffffff1673ffffffffffffffffffffffffffffffffffffffff1681526020019081526020016000206001015411156103655781600260007358a5727f2e956d3017c61135b7a9ff56b5b22b7673ffffffffffffffffffffffffffffffffffffffff1673ffffffffffffffffffffffffffffffffffffffff1681526020019081526020016000206001016000828254019250508190555081600260003273ffffffffffffffffffffffffffffffffffffffff1673ffffffffffffffffffffffffffffffffffffffff168152602001908152602001600020600101600082825403925050819055507f9603e2d30fb8cc0855e1c352fbc0b249786547a866d5c1479b328f8a2fd0ceaa8260405180806020018381526020018281038252601d8152602001807f5468652070656e616c74792073656e74207375636365737366756c6c790000008152506020019250505060405180910390a1600190506103d2565b7fd93bd6dbfdcc5a2b556a2a395808547c378eb1d7b2938137668e32166b86afe960405180806020018281038252601c8152602001807f596f7520646f206e6f74206861766520656e6f756768206d6f6e65790000000081525060200191505060405180910390a1600090505b919050565b6000806000846040518082805190602001908083835b60208310151561041257805182526020820191506020810190506020830392506103ed565b6001836020036101000a0380198251168184511680821785525050505050509050019150509081526020016040518091039020548303905060028113801561045b575060068113155b1561046957600a915061048d565b60068113801561047a5750600a8113155b15610488576014915061048d565b600091505b50929150505600a165627a7a72305820d2ae44d6252b68f918b534a85e21b2f2263570af73cecafbb3cd3a4c8349a8190029",
  "source": "pragma solidity^0.4.20;\n\ncontract Appendix2 {\n\n    mapping(string => int) temperatures;\n    address supplierAddress = 0x43439Cca7E74523262b2C757c874aa09969C1c9e;\n\n    modifier onlySupplier() {\n        require(tx.origin == supplierAddress);\n        _;\n    }\n\n    constructor() public {\n        temperatures[\"steel\"] = 34;\n        temperatures[\"plastic\"] = 12;\n        temperatures[\"wood\"] = 6;\n        uint penalty = 5;\n        Account account = _accounts[0x58a5727f2E956D3017C61135b7a9Ff56b5B22b76];\n        account.balance = 100;\n        Account account1 = _accounts[tx.origin];\n        account1.balance = 100;\n    }\n\n    struct Account {\n        address _addr;\n        uint balance;\n    }\n\n    mapping (address => Account) _accounts;\n\n    event sendPenaltyFail (\n        string _message\n    );\n\n    event sendPenaltySuccess (\n        string _message,\n        uint penalty\n    );\n\n    function getBalance() public returns(uint) {\n        return _accounts[tx.origin].balance;\n    }\n\n    function checkThreshold(string material, int your_temperature) public returns(uint) {\n        int difference = your_temperature - temperatures[material];\n        if(difference > 2 && difference <= 6) {\n            return 10;\n        }\n        if(difference > 6 && difference <= 10) {\n            return 20;\n        }\n        else {\n            return 0;\n        }\n    }\n\n    function sendPenalty(uint penalty) onlySupplier payable returns(bool){\n        if (_accounts[tx.origin].balance > penalty) {\n            _accounts[0x58a5727f2E956D3017C61135b7a9Ff56b5B22b76].balance += penalty;\n            _accounts[tx.origin].balance -= penalty;\n            emit sendPenaltySuccess('The penalty sent successfully', penalty);\n            return true;\n        }\n        else {\n            emit sendPenaltyFail('You do not have enough money');\n            return false;\n        }\n    }\n}\n",
  "sourcePath": "/home/anna/Desktop/secondStage/project1folder/contracts/Appendix2.sol",
  "compiler": {
    "name": "solc",
    "version": "0.4.24+commit.e67f0147.Emscripten.clang"
  },
  "schemaVersion": "2.0.0",
  "updatedAt": "2018-10-14T18:00:35.561Z"
}