{
  "contractName": "Customer",
  "abi": [
    {
      "constant": true,
      "inputs": [],
      "name": "releasedPrototypes",
      "outputs": [
        {
          "name": "",
          "type": "string"
        }
      ],
      "payable": false,
      "stateMutability": "view",
      "type": "function"
    },
    {
      "anonymous": false,
      "inputs": [
        {
          "indexed": false,
          "name": "_message",
          "type": "string"
        }
      ],
      "name": "proposeNewDemand",
      "type": "event"
    },
    {
      "anonymous": false,
      "inputs": [
        {
          "indexed": false,
          "name": "_message",
          "type": "string"
        }
      ],
      "name": "getOneDemand",
      "type": "event"
    },
    {
      "anonymous": false,
      "inputs": [
        {
          "indexed": false,
          "name": "_message",
          "type": "string"
        }
      ],
      "name": "getStoredDemands",
      "type": "event"
    },
    {
      "constant": false,
      "inputs": [],
      "name": "seePrototypes",
      "outputs": [
        {
          "name": "",
          "type": "string"
        }
      ],
      "payable": false,
      "stateMutability": "nonpayable",
      "type": "function"
    },
    {
      "constant": false,
      "inputs": [
        {
          "name": "_name",
          "type": "string"
        },
        {
          "name": "_details",
          "type": "string"
        }
      ],
      "name": "proposeDemand",
      "outputs": [],
      "payable": false,
      "stateMutability": "nonpayable",
      "type": "function"
    },
    {
      "constant": false,
      "inputs": [
        {
          "name": "demandID",
          "type": "uint256"
        }
      ],
      "name": "getDemand",
      "outputs": [
        {
          "name": "",
          "type": "string"
        },
        {
          "name": "",
          "type": "string"
        },
        {
          "name": "",
          "type": "address"
        }
      ],
      "payable": false,
      "stateMutability": "nonpayable",
      "type": "function"
    },
    {
      "constant": false,
      "inputs": [],
      "name": "getUnprocessed",
      "outputs": [
        {
          "name": "",
          "type": "uint256[]"
        }
      ],
      "payable": false,
      "stateMutability": "nonpayable",
      "type": "function"
    },
    {
      "constant": false,
      "inputs": [],
      "name": "clearUnprocessed",
      "outputs": [],
      "payable": false,
      "stateMutability": "nonpayable",
      "type": "function"
    },
    {
      "constant": false,
      "inputs": [
        {
          "name": "name",
          "type": "string"
        },
        {
          "name": "_link",
          "type": "string"
        },
        {
          "name": "customer_addr",
          "type": "address"
        },
        {
          "name": "prototype_addr",
          "type": "string"
        },
        {
          "name": "prototype_date",
          "type": "string"
        }
      ],
      "name": "storePrototype",
      "outputs": [],
      "payable": false,
      "stateMutability": "nonpayable",
      "type": "function"
    },
    {
      "constant": false,
      "inputs": [
        {
          "name": "name",
          "type": "string"
        }
      ],
      "name": "getPrototype",
      "outputs": [
        {
          "name": "",
          "type": "string"
        },
        {
          "name": "",
          "type": "string"
        },
        {
          "name": "",
          "type": "string"
        }
      ],
      "payable": false,
      "stateMutability": "nonpayable",
      "type": "function"
    },
    {
      "constant": false,
      "inputs": [
        {
          "name": "name",
          "type": "string"
        },
        {
          "name": "feedback",
          "type": "string"
        }
      ],
      "name": "writeFeedback",
      "outputs": [],
      "payable": false,
      "stateMutability": "nonpayable",
      "type": "function"
    },
    {
      "constant": false,
      "inputs": [
        {
          "name": "name",
          "type": "string"
        }
      ],
      "name": "seePrototype",
      "outputs": [
        {
          "name": "",
          "type": "string"
        },
        {
          "name": "",
          "type": "string"
        }
      ],
      "payable": false,
      "stateMutability": "nonpayable",
      "type": "function"
    }
  ],
  "bytecode": "0x60806040526104d26000557358a5727f2e956d3017c61135b7a9ff56b5b22b76600260006101000a81548173ffffffffffffffffffffffffffffffffffffffff021916908373ffffffffffffffffffffffffffffffffffffffff16021790555034801561006b57600080fd5b50611ce58061007b6000396000f3006080604052600436106100a4576000357c0100000000000000000000000000000000000000000000000000000000900463ffffffff16806314aca365146100a95780631ac2733c14610158578063388d8af21461029d5780634ad803da146103095780634eef9801146103995780638cddde9c146103b05780638fb71fb7146104fe57806391b820a2146105a15780639c68369514610631578063f88d00b6146106e0575b600080fd5b3480156100b557600080fd5b50610156600480360381019080803590602001908201803590602001908080601f0160208091040260200160405190810160405280939291908181526020018383808284378201915050505050509192919290803590602001908201803590602001908080601f016020809104026020016040519081016040528093929190818152602001838380828437820191505050505050919291929050505061089a565b005b34801561016457600080fd5b5061018360048036038101908080359060200190929190505050610a7e565b6040518080602001806020018473ffffffffffffffffffffffffffffffffffffffff1673ffffffffffffffffffffffffffffffffffffffff168152602001838103835286818151815260200191508051906020019080838360005b838110156101f95780820151818401526020810190506101de565b50505050905090810190601f1680156102265780820380516001836020036101000a031916815260200191505b50838103825285818151815260200191508051906020019080838360005b8381101561025f578082015181840152602081019050610244565b50505050905090810190601f16801561028c5780820380516001836020036101000a031916815260200191505b509550505050505060405180910390f35b3480156102a957600080fd5b506102b2610d15565b6040518080602001828103825283818151815260200191508051906020019060200280838360005b838110156102f55780820151818401526020810190506102da565b505050509050019250505060405180910390f35b34801561031557600080fd5b5061031e610e31565b6040518080602001828103825283818151815260200191508051906020019080838360005b8381101561035e578082015181840152602081019050610343565b50505050905090810190601f16801561038b5780820380516001836020036101000a031916815260200191505b509250505060405180910390f35b3480156103a557600080fd5b506103ae610ed3565b005b3480156103bc57600080fd5b50610417600480360381019080803590602001908201803590602001908080601f0160208091040260200160405190810160405280939291908181526020018383808284378201915050505050509192919290505050610f3f565b604051808060200180602001838103835285818151815260200191508051906020019080838360005b8381101561045b578082015181840152602081019050610440565b50505050905090810190601f1680156104885780820380516001836020036101000a031916815260200191505b50838103825284818151815260200191508051906020019080838360005b838110156104c15780820151818401526020810190506104a6565b50505050905090810190601f1680156104ee5780820380516001836020036101000a031916815260200191505b5094505050505060405180910390f35b34801561050a57600080fd5b5061059f600480360381019080803590602001908201803590602001919091929391929390803590602001908201803590602001919091929391929390803573ffffffffffffffffffffffffffffffffffffffff1690602001909291908035906020019082018035906020019190919293919293908035906020019082018035906020019190919293919293905050506111bb565b005b3480156105ad57600080fd5b506105b6611477565b6040518080602001828103825283818151815260200191508051906020019080838360005b838110156105f65780820151818401526020810190506105db565b50505050905090810190601f1680156106235780820380516001836020036101000a031916815260200191505b509250505060405180910390f35b34801561063d57600080fd5b506106de600480360381019080803590602001908201803590602001908080601f0160208091040260200160405190810160405280939291908181526020018383808284378201915050505050509192919290803590602001908201803590602001908080601f0160208091040260200160405190810160405280939291908181526020018383808284378201915050505050509192919290505050611515565b005b3480156106ec57600080fd5b50610747600480360381019080803590602001908201803590602001908080601f0160208091040260200160405190810160405280939291908181526020018383808284378201915050505050509192919290505050611635565b60405180806020018060200180602001848103845287818151815260200191508051906020019080838360005b8381101561078f578082015181840152602081019050610774565b50505050905090810190601f1680156107bc5780820380516001836020036101000a031916815260200191505b50848103835286818151815260200191508051906020019080838360005b838110156107f55780820151818401526020810190506107da565b50505050905090810190601f1680156108225780820380516001836020036101000a031916815260200191505b50848103825285818151815260200191508051906020019080838360005b8381101561085b578082015181840152602081019050610840565b50505050905090810190601f1680156108885780820380516001836020036101000a031916815260200191505b50965050505050505060405180910390f35b600060036000805481526020019081526020016000209050828160000190805190602001906108ca929190611b73565b50818160010190805190602001906108e3929190611b73565b50328160020160006101000a81548173ffffffffffffffffffffffffffffffffffffffff021916908373ffffffffffffffffffffffffffffffffffffffff16021790555060018060005490806001815401808255809150509060018203906000526020600020016000909192909190915055505060016000808282540192505081905550326005846040518082805190602001908083835b6020831015156109a0578051825260208201915060208101905060208303925061097b565b6001836020036101000a038019825116818451168082178552505050505050905001915050908152602001604051809103902060006101000a81548173ffffffffffffffffffffffffffffffffffffffff021916908373ffffffffffffffffffffffffffffffffffffffff1602179055507f850e4cd51ec2537ab8ab67177e4122c51d0b5da5e6b8493a3ce08c49d896dde46040518080602001828103825260148152602001807f596f75206372656174656420612064656d616e6400000000000000000000000081525060200191505060405180910390a1505050565b6060806000600260009054906101000a900473ffffffffffffffffffffffffffffffffffffffff1673ffffffffffffffffffffffffffffffffffffffff163273ffffffffffffffffffffffffffffffffffffffff16141515610adf57600080fd5b7f76af5d0519dad081266eb2b37b2911dd3d8589fd977a1e05a250c83f2e627b216040518080602001828103825260288152602001807f596f752068617665206163636573736564207468652064656d616e6420696e6681526020017f6f726d6174696f6e00000000000000000000000000000000000000000000000081525060400191505060405180910390a160036000858152602001908152602001600020600001600360008681526020019081526020016000206001016003600087815260200190815260200160002060020160009054906101000a900473ffffffffffffffffffffffffffffffffffffffff16828054600181600116156101000203166002900480601f016020809104026020016040519081016040528092919081815260200182805460018160011615610100020316600290048015610c655780601f10610c3a57610100808354040283529160200191610c65565b820191906000526020600020905b815481529060010190602001808311610c4857829003601f168201915b50505050509250818054600181600116156101000203166002900480601f016020809104026020016040519081016040528092919081815260200182805460018160011615610100020316600290048015610d015780601f10610cd657610100808354040283529160200191610d01565b820191906000526020600020905b815481529060010190602001808311610ce457829003601f168201915b505050505091509250925092509193909250565b6060600260009054906101000a900473ffffffffffffffffffffffffffffffffffffffff1673ffffffffffffffffffffffffffffffffffffffff163273ffffffffffffffffffffffffffffffffffffffff16141515610d7357600080fd5b7f1fd5f0bef929b32c13d89ee3712d1715c94941240afdd05c3c714c1ba72fd2b66040518080602001828103825260208152602001807f596f75206861766520616363657373656420616c6c2064656d616e642069647381525060200191505060405180910390a16001805480602002602001604051908101604052809291908181526020018280548015610e2757602002820191906000526020600020905b815481526020019060010190808311610e13575b5050505050905090565b606060048054600181600116156101000203166002900480601f016020809104026020016040519081016040528092919081815260200182805460018160011615610100020316600290048015610ec95780601f10610e9e57610100808354040283529160200191610ec9565b820191906000526020600020905b815481529060010190602001808311610eac57829003601f168201915b5050505050905090565b600260009054906101000a900473ffffffffffffffffffffffffffffffffffffffff1673ffffffffffffffffffffffffffffffffffffffff163273ffffffffffffffffffffffffffffffffffffffff16141515610f2f57600080fd5b60016000610f3d9190611bf3565b565b6060806007836040518082805190602001908083835b602083101515610f7a5780518252602082019150602081019050602083039250610f55565b6001836020036101000a0380198251168184511680821785525050505050509050019150509081526020016040518091039020600660006005866040518082805190602001908083835b602083101515610fe95780518252602082019150602081019050602083039250610fc4565b6001836020036101000a038019825116818451168082178552505050505050905001915050908152602001604051809103902060009054906101000a900473ffffffffffffffffffffffffffffffffffffffff1673ffffffffffffffffffffffffffffffffffffffff1673ffffffffffffffffffffffffffffffffffffffff168152602001908152602001600020600301818054600181600116156101000203166002900480601f01602080910402602001604051908101604052809291908181526020018280546001816001161561010002031660029004801561110f5780601f106110e45761010080835404028352916020019161110f565b820191906000526020600020905b8154815290600101906020018083116110f257829003601f168201915b50505050509150808054600181600116156101000203166002900480601f0160208091040260200160405190810160405280929190818152602001828054600181600116156101000203166002900480156111ab5780601f10611180576101008083540402835291602001916111ab565b820191906000526020600020905b81548152906001019060200180831161118e57829003601f168201915b5050505050905091509150915091565b6000600260009054906101000a900473ffffffffffffffffffffffffffffffffffffffff1673ffffffffffffffffffffffffffffffffffffffff163273ffffffffffffffffffffffffffffffffffffffff1614151561121957600080fd5b600660008773ffffffffffffffffffffffffffffffffffffffff1673ffffffffffffffffffffffffffffffffffffffff1681526020019081526020016000209050848482600001919061126d929190611c14565b508787826002019190611281929190611c14565b508282826001019190611295929190611c14565b508560058b8b60405180838380828437820191505092505050908152602001604051809103902060006101000a81548173ffffffffffffffffffffffffffffffffffffffff021916908373ffffffffffffffffffffffffffffffffffffffff1602179055506114208a8a8080601f0160208091040260200160405190810160405280939291908181526020018383808284378201915050505050506114126040805190810160405280600281526020017f2c2000000000000000000000000000000000000000000000000000000000000081525060048054600181600116156101000203166002900480601f0160208091040260200160405190810160405280929190818152602001828054600181600116156101000203166002900480156113ff5780601f106113d4576101008083540402835291602001916113ff565b820191906000526020600020905b8154815290600101906020018083116113e257829003601f168201915b50505050506119a690919063ffffffff16565b6119a690919063ffffffff16565b60049080519060200190611435929190611b73565b50878760078c8c604051808383808284378201915050925050509081526020016040518091039020919061146a929190611c14565b5050505050505050505050565b60048054600181600116156101000203166002900480601f01602080910402602001604051908101604052809291908181526020018280546001816001161561010002031660029004801561150d5780601f106114e25761010080835404028352916020019161150d565b820191906000526020600020905b8154815290600101906020018083116114f057829003601f168201915b505050505081565b3273ffffffffffffffffffffffffffffffffffffffff166005836040518082805190602001908083835b602083101515611564578051825260208201915060208101905060208303925061153f565b6001836020036101000a038019825116818451168082178552505050505050905001915050908152602001604051809103902060009054906101000a900473ffffffffffffffffffffffffffffffffffffffff1673ffffffffffffffffffffffffffffffffffffffff161415156115da57600080fd5b80600660003273ffffffffffffffffffffffffffffffffffffffff1673ffffffffffffffffffffffffffffffffffffffff1681526020019081526020016000206003019080519060200190611630929190611b73565b505050565b60608060603273ffffffffffffffffffffffffffffffffffffffff166005856040518082805190602001908083835b6020831015156116895780518252602082019150602081019050602083039250611664565b6001836020036101000a038019825116818451168082178552505050505050905001915050908152602001604051809103902060009054906101000a900473ffffffffffffffffffffffffffffffffffffffff1673ffffffffffffffffffffffffffffffffffffffff161415156116ff57600080fd5b600660003273ffffffffffffffffffffffffffffffffffffffff1673ffffffffffffffffffffffffffffffffffffffff168152602001908152602001600020600001600660003273ffffffffffffffffffffffffffffffffffffffff1673ffffffffffffffffffffffffffffffffffffffff168152602001908152602001600020600101600660003273ffffffffffffffffffffffffffffffffffffffff1673ffffffffffffffffffffffffffffffffffffffff168152602001908152602001600020600201828054600181600116156101000203166002900480601f01602080910402602001604051908101604052809291908181526020018280546001816001161561010002031660029004801561185a5780601f1061182f5761010080835404028352916020019161185a565b820191906000526020600020905b81548152906001019060200180831161183d57829003601f168201915b50505050509250818054600181600116156101000203166002900480601f0160208091040260200160405190810160405280929190818152602001828054600181600116156101000203166002900480156118f65780601f106118cb576101008083540402835291602001916118f6565b820191906000526020600020905b8154815290600101906020018083116118d957829003601f168201915b50505050509150808054600181600116156101000203166002900480601f0160208091040260200160405190810160405280929190818152602001828054600181600116156101000203166002900480156119925780601f1061196757610100808354040283529160200191611992565b820191906000526020600020905b81548152906001019060200180831161197557829003601f168201915b505050505090509250925092509193909250565b606080606080606060008088955087945084518651016040519080825280601f01601f1916602001820160405280156119ee5781602001602082028038833980820191505090505b509350839250600091505b8551821015611aac578582815181101515611a1057fe5b9060200101517f010000000000000000000000000000000000000000000000000000000000000090047f0100000000000000000000000000000000000000000000000000000000000000028382806001019350815181101515611a6f57fe5b9060200101907effffffffffffffffffffffffffffffffffffffffffffffffffffffffffffff1916908160001a90535081806001019250506119f9565b600091505b8451821015611b64578482815181101515611ac857fe5b9060200101517f010000000000000000000000000000000000000000000000000000000000000090047f0100000000000000000000000000000000000000000000000000000000000000028382806001019350815181101515611b2757fe5b9060200101907effffffffffffffffffffffffffffffffffffffffffffffffffffffffffffff1916908160001a9053508180600101925050611ab1565b82965050505050505092915050565b828054600181600116156101000203166002900490600052602060002090601f016020900481019282601f10611bb457805160ff1916838001178555611be2565b82800160010185558215611be2579182015b82811115611be1578251825591602001919060010190611bc6565b5b509050611bef9190611c94565b5090565b5080546000825590600052602060002090810190611c119190611c94565b50565b828054600181600116156101000203166002900490600052602060002090601f016020900481019282601f10611c5557803560ff1916838001178555611c83565b82800160010185558215611c83579182015b82811115611c82578235825591602001919060010190611c67565b5b509050611c909190611c94565b5090565b611cb691905b80821115611cb2576000816000905550600101611c9a565b5090565b905600a165627a7a72305820d91340678e8533468edf1e2bae3cd7bb3807c602bfea7f3e58136be18c405d2c0029",
  "source": "pragma solidity^0.4.20;\n\nimport \"./Strings.sol\";\n\ncontract Customer {\n\n    using Strings for string;\n\n    uint demandCount = 1234;\n    uint[] unprocessedDemands;\n    address companyAddress = 0x58a5727f2E956D3017C61135b7a9Ff56b5B22b76;\n\n    modifier onlyCompany() {\n        require(tx.origin == companyAddress);\n        _;\n    }\n\n    struct Demand {\n        string name;\n        string details;\n        address customerAddress;\n    }\n\n    mapping(uint => Demand) demands;\n\n    struct Prototype {\n        string _addr;\n        string _date;\n        string _link;\n        string _feedback;\n    }\n\n    string public releasedPrototypes;\n    mapping(string => address) nameAddress;\n    mapping(address => Prototype) prototypes;\n    mapping(string => string) nameLink;\n\n    event proposeNewDemand (\n        string _message\n    );\n\n    event getOneDemand (\n        string _message\n    );\n\n    event getStoredDemands (\n        string _message\n    );\n\n    function seePrototypes() public returns(string) {\n        return releasedPrototypes;\n    }\n\n    function proposeDemand(string _name, string _details) public {\n        Demand demand = demands[demandCount];\n        demand.name = _name;\n        demand.details = _details;\n        demand.customerAddress = tx.origin;\n        unprocessedDemands.push(demandCount) -1;\n        demandCount += 1;\n        nameAddress[_name] = tx.origin;\n        emit proposeNewDemand(\"You created a demand\");\n    }\n\n    function getDemand(uint demandID) onlyCompany external returns(string, string, address) {\n        emit getOneDemand(\"You have accessed the demand information\");\n        return (demands[demandID].name, demands[demandID].details, demands[demandID].customerAddress);\n    }\n\n    function getUnprocessed() onlyCompany external  returns(uint[]) {\n        emit getStoredDemands(\"You have accessed all demand ids\");\n        return unprocessedDemands;\n    }\n\n    function clearUnprocessed() onlyCompany external {\n        delete unprocessedDemands;\n    }\n\n    function storePrototype(string name, string _link, address customer_addr, string prototype_addr, string prototype_date) onlyCompany external {\n        Prototype prototype = prototypes[customer_addr];\n        prototype._addr = prototype_addr;\n        prototype._link = _link;\n        prototype._date = prototype_date;\n        nameAddress[name] = customer_addr;\n        releasedPrototypes = releasedPrototypes.concat(\", \").concat(name);\n        nameLink[name] = _link;\n    }\n\n    function getPrototype(string name) public returns(string, string, string) {\n        require(nameAddress[name]==tx.origin);\n        return (prototypes[tx.origin]._addr, prototypes[tx.origin]._date, prototypes[tx.origin]._link);\n    }\n\n    function writeFeedback(string name, string feedback) public {\n        require(nameAddress[name]==tx.origin);\n        prototypes[tx.origin]._feedback = feedback;\n    }\n\n    function seePrototype(string name) public returns(string, string) {\n        return (nameLink[name], prototypes[nameAddress[name]]._feedback);\n    }\n}",
  "sourcePath": "/home/anna/Desktop/secondStage/project1folder/contracts/Customer.sol",
  "compiler": {
    "name": "solc",
    "version": "0.4.24+commit.e67f0147.Emscripten.clang"
  },
  "schemaVersion": "2.0.0",
  "updatedAt": "2018-10-14T18:00:35.568Z"
}