{
  "contractName": "Supplier",
  "abi": [
    {
      "inputs": [
        {
          "name": "app1Addr",
          "type": "address"
        },
        {
          "name": "app2Addr",
          "type": "address"
        }
      ],
      "payable": false,
      "stateMutability": "nonpayable",
      "type": "constructor"
    },
    {
      "constant": false,
      "inputs": [],
      "name": "getRequests",
      "outputs": [
        {
          "name": "",
          "type": "uint256[]"
        }
      ],
      "payable": false,
      "stateMutability": "nonpayable",
      "type": "function"
    },
    {
      "constant": false,
      "inputs": [],
      "name": "clearRequests",
      "outputs": [],
      "payable": false,
      "stateMutability": "nonpayable",
      "type": "function"
    },
    {
      "constant": false,
      "inputs": [
        {
          "name": "modelID",
          "type": "uint256"
        }
      ],
      "name": "getSpecificRequest",
      "outputs": [
        {
          "name": "",
          "type": "string"
        }
      ],
      "payable": false,
      "stateMutability": "nonpayable",
      "type": "function"
    },
    {
      "constant": false,
      "inputs": [
        {
          "name": "modelID",
          "type": "uint256"
        },
        {
          "name": "your_temperature",
          "type": "int256"
        },
        {
          "name": "_addr",
          "type": "string"
        }
      ],
      "name": "sendSupply",
      "outputs": [],
      "payable": false,
      "stateMutability": "nonpayable",
      "type": "function"
    },
    {
      "constant": false,
      "inputs": [],
      "name": "getBalance",
      "outputs": [
        {
          "name": "",
          "type": "uint256"
        }
      ],
      "payable": false,
      "stateMutability": "nonpayable",
      "type": "function"
    }
  ],
  "bytecode": "0x608060405234801561001057600080fd5b50604051604080610b488339810180604052810190808051906020019092919080519060200190929190505050816000806101000a81548173ffffffffffffffffffffffffffffffffffffffff021916908373ffffffffffffffffffffffffffffffffffffffff16021790555080600160006101000a81548173ffffffffffffffffffffffffffffffffffffffff021916908373ffffffffffffffffffffffffffffffffffffffff1602179055505050610a79806100cf6000396000f30060806040526004361061006d576000357c0100000000000000000000000000000000000000000000000000000000900463ffffffff16806312065fe01461007257806339a9e6c51461009d5780638813ce12146100b4578063db72fb1d14610120578063ec3df530146101c6575b600080fd5b34801561007e57600080fd5b50610087610243565b6040518082815260200191505060405180910390f35b3480156100a957600080fd5b506100b2610310565b005b3480156100c057600080fd5b506100c96103b5565b6040518080602001828103825283818151815260200191508051906020019060200280838360005b8381101561010c5780820151818401526020810190506100f1565b505050509050019250505060405180910390f35b34801561012c57600080fd5b5061014b600480360381019080803590602001909291905050506104d8565b6040518080602001828103825283818151815260200191508051906020019080838360005b8381101561018b578082015181840152602081019050610170565b50505050905090810190601f1680156101b85780820380516001836020036101000a031916815260200191505b509250505060405180910390f35b3480156101d257600080fd5b506102416004803603810190808035906020019092919080359060200190929190803590602001908201803590602001908080601f0160208091040260200160405190810160405280939291908181526020018383808284378201915050505050509192919290505050610608565b005b600080600160009054906101000a900473ffffffffffffffffffffffffffffffffffffffff1690508073ffffffffffffffffffffffffffffffffffffffff166312065fe06040518163ffffffff167c0100000000000000000000000000000000000000000000000000000000028152600401602060405180830381600087803b1580156102cf57600080fd5b505af11580156102e3573d6000803e3d6000fd5b505050506040513d60208110156102f957600080fd5b810190808051906020019092919050505091505090565b60008060009054906101000a900473ffffffffffffffffffffffffffffffffffffffff1690508073ffffffffffffffffffffffffffffffffffffffff166339a9e6c56040518163ffffffff167c0100000000000000000000000000000000000000000000000000000000028152600401600060405180830381600087803b15801561039a57600080fd5b505af11580156103ae573d6000803e3d6000fd5b5050505050565b606060008060009054906101000a900473ffffffffffffffffffffffffffffffffffffffff1690508073ffffffffffffffffffffffffffffffffffffffff16638813ce126040518163ffffffff167c0100000000000000000000000000000000000000000000000000000000028152600401600060405180830381600087803b15801561044157600080fd5b505af1158015610455573d6000803e3d6000fd5b505050506040513d6000823e3d601f19601f82011682018060405250602081101561047f57600080fd5b81019080805164010000000081111561049757600080fd5b828101905060208101848111156104ad57600080fd5b81518560208202830111640100000000821117156104ca57600080fd5b505092919050505091505090565b606060008060009054906101000a900473ffffffffffffffffffffffffffffffffffffffff1690508073ffffffffffffffffffffffffffffffffffffffff1663c58343ef846040518263ffffffff167c010000000000000000000000000000000000000000000000000000000002815260040180828152602001915050600060405180830381600087803b15801561056f57600080fd5b505af1158015610583573d6000803e3d6000fd5b505050506040513d6000823e3d601f19601f8201168201806040525060208110156105ad57600080fd5b8101908080516401000000008111156105c557600080fd5b828101905060208101848111156105db57600080fd5b81518560018202830111640100000000821117156105f857600080fd5b5050929190505050915050919050565b600080606060008060009054906101000a900473ffffffffffffffffffffffffffffffffffffffff169350600160009054906101000a900473ffffffffffffffffffffffffffffffffffffffff169250610661876104d8565b91508273ffffffffffffffffffffffffffffffffffffffff1663a51af01b83886040518363ffffffff167c01000000000000000000000000000000000000000000000000000000000281526004018080602001838152602001828103825284818151815260200191508051906020019080838360005b838110156106f25780820151818401526020810190506106d7565b50505050905090810190601f16801561071f5780820380516001836020036101000a031916815260200191505b509350505050602060405180830381600087803b15801561073f57600080fd5b505af1158015610753573d6000803e3d6000fd5b505050506040513d602081101561076957600080fd5b8101908080519060200190929190505050905060008114151561094757600115158373ffffffffffffffffffffffffffffffffffffffff16633fd2a066836040518263ffffffff167c010000000000000000000000000000000000000000000000000000000002815260040180828152602001915050602060405180830381600087803b1580156107f957600080fd5b505af115801561080d573d6000803e3d6000fd5b505050506040513d602081101561082357600080fd5b81019080805190602001909291905050501515141561093d578373ffffffffffffffffffffffffffffffffffffffff1663ec3df5308888886040518463ffffffff167c01000000000000000000000000000000000000000000000000000000000281526004018084815260200183815260200180602001828103825283818151815260200191508051906020019080838360005b838110156108d25780820151818401526020810190506108b7565b50505050905090810190601f1680156108ff5780820380516001836020036101000a031916815260200191505b50945050505050600060405180830381600087803b15801561092057600080fd5b505af1158015610934573d6000803e3d6000fd5b50505050610942565b600080fd5b610a44565b8373ffffffffffffffffffffffffffffffffffffffff1663ec3df5308888886040518463ffffffff167c01000000000000000000000000000000000000000000000000000000000281526004018084815260200183815260200180602001828103825283818151815260200191508051906020019080838360005b838110156109dd5780820151818401526020810190506109c2565b50505050905090810190601f168015610a0a5780820380516001836020036101000a031916815260200191505b50945050505050600060405180830381600087803b158015610a2b57600080fd5b505af1158015610a3f573d6000803e3d6000fd5b505050505b505050505050505600a165627a7a72305820eabf1cc1e544e5b4cabba6c5b4817b83ee6c25b40502e7fa3f011db7d6199f8a0029",
  "source": "pragma solidity^0.4.20;\n\nimport \"./Appendix1.sol\";\nimport \"./Appendix2.sol\";\n\ncontract Supplier {\n\n    address app1Address;\n    address app2Address;\n\n    constructor (address app1Addr, address app2Addr) public {\n        app1Address = app1Addr;\n        app2Address = app2Addr;\n    }\n\n    function getRequests() public returns(uint[]) {\n        Appendix1 app1 = Appendix1(app1Address);\n        return app1.getRequests();\n    }\n\n    //clearRequests\n    function clearRequests() public {\n        Appendix1 app1 = Appendix1(app1Address);\n        app1.clearRequests();\n    }\n\n    function getSpecificRequest(uint modelID) public returns(string) {\n        Appendix1 app1 = Appendix1(app1Address);\n        return app1.getRequest(modelID);\n    }\n\n    function sendSupply(uint modelID, int your_temperature, string _addr) public {\n        Appendix1 app1 = Appendix1(app1Address);\n        Appendix2 app2 = Appendix2(app2Address);\n        string memory material = getSpecificRequest(modelID);\n        var penalty = app2.checkThreshold(material, your_temperature);\n        if (penalty != 0) {\n            if (app2.sendPenalty(penalty) == true) {\n                app1.sendSupply(modelID, your_temperature, _addr);\n            }\n            else {\n                throw;\n            }\n        }\n        else {\n            app1.sendSupply(modelID, your_temperature, _addr);\n        }\n    }\n\n    function getBalance() public returns(uint) {\n        Appendix2 app2 = Appendix2(app2Address);\n        return app2.getBalance();\n    }\n}",
  "sourcePath": "/home/anna/Desktop/secondStage/project1folder/contracts/Supplier.sol",
  "compiler": {
    "name": "solc",
    "version": "0.4.24+commit.e67f0147.Emscripten.clang"
  },
  "schemaVersion": "2.0.0",
  "updatedAt": "2018-10-14T18:00:35.553Z"
}