{
  "contractName": "Appendix1",
  "abi": [
    {
      "constant": false,
      "inputs": [
        {
          "name": "modelID",
          "type": "uint256"
        },
        {
          "name": "_material",
          "type": "string"
        }
      ],
      "name": "makeRequest",
      "outputs": [],
      "payable": false,
      "stateMutability": "nonpayable",
      "type": "function"
    },
    {
      "constant": false,
      "inputs": [],
      "name": "getRequests",
      "outputs": [
        {
          "name": "",
          "type": "uint256[]"
        }
      ],
      "payable": false,
      "stateMutability": "nonpayable",
      "type": "function"
    },
    {
      "constant": false,
      "inputs": [],
      "name": "clearRequests",
      "outputs": [],
      "payable": false,
      "stateMutability": "nonpayable",
      "type": "function"
    },
    {
      "constant": false,
      "inputs": [
        {
          "name": "modelID",
          "type": "uint256"
        }
      ],
      "name": "getRequest",
      "outputs": [
        {
          "name": "",
          "type": "string"
        }
      ],
      "payable": false,
      "stateMutability": "nonpayable",
      "type": "function"
    },
    {
      "constant": false,
      "inputs": [
        {
          "name": "modelID",
          "type": "uint256"
        },
        {
          "name": "_temp",
          "type": "int256"
        },
        {
          "name": "_addr",
          "type": "string"
        }
      ],
      "name": "sendSupply",
      "outputs": [],
      "payable": false,
      "stateMutability": "nonpayable",
      "type": "function"
    },
    {
      "constant": false,
      "inputs": [
        {
          "name": "modelID",
          "type": "uint256"
        }
      ],
      "name": "getSupply",
      "outputs": [
        {
          "name": "",
          "type": "string"
        }
      ],
      "payable": false,
      "stateMutability": "nonpayable",
      "type": "function"
    }
  ],
  "bytecode": "0x60806040527358a5727f2e956d3017c61135b7a9ff56b5b22b766000806101000a81548173ffffffffffffffffffffffffffffffffffffffff021916908373ffffffffffffffffffffffffffffffffffffffff1602179055507343439cca7e74523262b2c757c874aa09969c1c9e600160006101000a81548173ffffffffffffffffffffffffffffffffffffffff021916908373ffffffffffffffffffffffffffffffffffffffff1602179055503480156100b957600080fd5b506108b3806100c96000396000f300608060405260043610610078576000357c0100000000000000000000000000000000000000000000000000000000900463ffffffff1680632eded4cc1461007d57806339a9e6c5146100c25780638813ce12146100d9578063c58343ef14610145578063ec3df530146101eb578063f77ee79d1461023a575b600080fd5b34801561008957600080fd5b506100c0600480360381019080803590602001909291908035906020019082018035906020019190919293919293905050506102e0565b005b3480156100ce57600080fd5b506100d76103a4565b005b3480156100e557600080fd5b506100ee610410565b6040518080602001828103825283818151815260200191508051906020019060200280838360005b83811015610131578082015181840152602081019050610116565b505050509050019250505060405180910390f35b34801561015157600080fd5b50610170600480360381019080803590602001909291905050506104c4565b6040518080602001828103825283818151815260200191508051906020019080838360005b838110156101b0578082015181840152602081019050610195565b50505050905090810190601f1680156101dd5780820380516001836020036101000a031916815260200191505b509250505060405180910390f35b3480156101f757600080fd5b5061023860048036038101908080359060200190929190803590602001909291908035906020019082018035906020019190919293919293905050506105d8565b005b34801561024657600080fd5b50610265600480360381019080803590602001909291905050506106ae565b6040518080602001828103825283818151815260200191508051906020019080838360005b838110156102a557808201518184015260208101905061028a565b50505050905090810190601f1680156102d25780820380516001836020036101000a031916815260200191505b509250505060405180910390f35b60008060009054906101000a900473ffffffffffffffffffffffffffffffffffffffff1673ffffffffffffffffffffffffffffffffffffffff163273ffffffffffffffffffffffffffffffffffffffff1614151561033d57600080fd5b60036000858152602001908152602001600020905082828260000191906103659291906107c1565b50428160010181905550600160028590806001815401808255809150509060018203906000526020600020016000909192909190915055505050505050565b600160009054906101000a900473ffffffffffffffffffffffffffffffffffffffff1673ffffffffffffffffffffffffffffffffffffffff163273ffffffffffffffffffffffffffffffffffffffff1614151561040057600080fd5b6002600061040e9190610841565b565b6060600160009054906101000a900473ffffffffffffffffffffffffffffffffffffffff1673ffffffffffffffffffffffffffffffffffffffff163273ffffffffffffffffffffffffffffffffffffffff1614151561046e57600080fd5b60028054806020026020016040519081016040528092919081815260200182805480156104ba57602002820191906000526020600020905b8154815260200190600101908083116104a6575b5050505050905090565b6060600160009054906101000a900473ffffffffffffffffffffffffffffffffffffffff1673ffffffffffffffffffffffffffffffffffffffff163273ffffffffffffffffffffffffffffffffffffffff1614151561052257600080fd5b600360008381526020019081526020016000206000018054600181600116156101000203166002900480601f0160208091040260200160405190810160405280929190818152602001828054600181600116156101000203166002900480156105cc5780601f106105a1576101008083540402835291602001916105cc565b820191906000526020600020905b8154815290600101906020018083116105af57829003601f168201915b50505050509050919050565b600160009054906101000a900473ffffffffffffffffffffffffffffffffffffffff1673ffffffffffffffffffffffffffffffffffffffff163273ffffffffffffffffffffffffffffffffffffffff1614151561063457600080fd5b60036000858152602001908152602001600020600101544203600360008681526020019081526020016000206002018190555082600360008681526020019081526020016000206003018190555081816003600087815260200190815260200160002060040191906106a79291906107c1565b5050505050565b60606000809054906101000a900473ffffffffffffffffffffffffffffffffffffffff1673ffffffffffffffffffffffffffffffffffffffff163273ffffffffffffffffffffffffffffffffffffffff1614151561070b57600080fd5b600360008381526020019081526020016000206004018054600181600116156101000203166002900480601f0160208091040260200160405190810160405280929190818152602001828054600181600116156101000203166002900480156107b55780601f1061078a576101008083540402835291602001916107b5565b820191906000526020600020905b81548152906001019060200180831161079857829003601f168201915b50505050509050919050565b828054600181600116156101000203166002900490600052602060002090601f016020900481019282601f1061080257803560ff1916838001178555610830565b82800160010185558215610830579182015b8281111561082f578235825591602001919060010190610814565b5b50905061083d9190610862565b5090565b508054600082559060005260206000209081019061085f9190610862565b50565b61088491905b80821115610880576000816000905550600101610868565b5090565b905600a165627a7a72305820dd17c875f27668cf16b7bcee351ed4eeaa5c113a5af19dcdbb158b8c1b274e4d0029",
  "source": "pragma solidity^0.4.20;\n\ncontract Appendix1 {\n\n    address companyAddress = 0x58a5727f2E956D3017C61135b7a9Ff56b5B22b76;\n    address supplierAddress = 0x43439Cca7E74523262b2C757c874aa09969C1c9e;\n\n    modifier onlyCompany() {\n        require(tx.origin == companyAddress);\n        _;\n    }\n\n    modifier onlySupplier() {\n        require(tx.origin == supplierAddress);\n        _;\n    }\n\n    struct Supply {\n        string material;\n        uint requestTime;\n        uint operationTime;\n        int temperature;\n        string addr;\n    }\n\n    uint[] newRequests;\n    mapping(uint => Supply) supplies;\n\n    function makeRequest(uint modelID, string _material) onlyCompany external {\n        Supply supply = supplies[modelID];\n        supply.material = _material;\n        supply.requestTime = block.timestamp;\n        newRequests.push(modelID) -1;\n    }\n\n    function getRequests() onlySupplier external returns(uint[]) {\n        return newRequests;\n    }\n\n    //(only in UI)\n    function clearRequests() onlySupplier external {\n        delete newRequests;\n    }\n\n    function getRequest(uint modelID) onlySupplier external returns(string) {\n        return (supplies[modelID].material);\n    }\n\n    function sendSupply(uint modelID, int _temp, string _addr) onlySupplier external {\n        supplies[modelID].operationTime = block.timestamp - supplies[modelID].requestTime;\n        supplies[modelID].temperature = _temp;\n        supplies[modelID].addr = _addr;\n    }\n\n    function getSupply(uint modelID) onlyCompany external returns(string) {\n        return supplies[modelID].addr;\n    }\n\n\n}",
  "sourcePath": "/home/anna/Desktop/secondStage/project1folder/contracts/Appendix1.sol",
  "compiler": {
    "name": "solc",
    "version": "0.4.24+commit.e67f0147.Emscripten.clang"
  },
  "schemaVersion": "2.0.0",
  "updatedAt": "2018-10-14T18:00:35.550Z"
}