{
  "contractName": "Company",
  "abi": [
    {
      "inputs": [
        {
          "name": "customerAddr",
          "type": "address"
        },
        {
          "name": "app1Addr",
          "type": "address"
        }
      ],
      "payable": false,
      "stateMutability": "nonpayable",
      "type": "constructor"
    },
    {
      "constant": false,
      "inputs": [],
      "name": "getDemands",
      "outputs": [
        {
          "name": "",
          "type": "uint256[]"
        }
      ],
      "payable": false,
      "stateMutability": "nonpayable",
      "type": "function"
    },
    {
      "constant": false,
      "inputs": [],
      "name": "clearDemands",
      "outputs": [],
      "payable": false,
      "stateMutability": "nonpayable",
      "type": "function"
    },
    {
      "constant": false,
      "inputs": [
        {
          "name": "demandID",
          "type": "uint256"
        }
      ],
      "name": "getSpecificDemand",
      "outputs": [
        {
          "name": "",
          "type": "string"
        },
        {
          "name": "",
          "type": "string"
        },
        {
          "name": "",
          "type": "address"
        }
      ],
      "payable": false,
      "stateMutability": "nonpayable",
      "type": "function"
    },
    {
      "constant": false,
      "inputs": [
        {
          "name": "demandID",
          "type": "uint256"
        },
        {
          "name": "_author",
          "type": "string"
        },
        {
          "name": "_path",
          "type": "string"
        },
        {
          "name": "_material",
          "type": "string"
        },
        {
          "name": "req1",
          "type": "uint256"
        },
        {
          "name": "req2",
          "type": "uint256"
        }
      ],
      "name": "storeModel",
      "outputs": [],
      "payable": false,
      "stateMutability": "nonpayable",
      "type": "function"
    },
    {
      "constant": false,
      "inputs": [
        {
          "name": "modelID",
          "type": "uint256"
        }
      ],
      "name": "getSupply",
      "outputs": [
        {
          "name": "",
          "type": "string"
        }
      ],
      "payable": false,
      "stateMutability": "nonpayable",
      "type": "function"
    },
    {
      "constant": false,
      "inputs": [
        {
          "name": "modelID",
          "type": "uint256"
        }
      ],
      "name": "getModel",
      "outputs": [
        {
          "name": "",
          "type": "string"
        },
        {
          "name": "",
          "type": "string"
        },
        {
          "name": "",
          "type": "string"
        },
        {
          "name": "",
          "type": "string"
        }
      ],
      "payable": false,
      "stateMutability": "nonpayable",
      "type": "function"
    },
    {
      "constant": false,
      "inputs": [
        {
          "name": "prototypeID",
          "type": "uint256"
        },
        {
          "name": "_path",
          "type": "string"
        }
      ],
      "name": "storePrototype",
      "outputs": [],
      "payable": false,
      "stateMutability": "nonpayable",
      "type": "function"
    },
    {
      "constant": false,
      "inputs": [
        {
          "name": "prototypeID",
          "type": "uint256"
        }
      ],
      "name": "getPrototype",
      "outputs": [
        {
          "name": "",
          "type": "string"
        },
        {
          "name": "",
          "type": "address"
        },
        {
          "name": "",
          "type": "string"
        },
        {
          "name": "",
          "type": "string"
        }
      ],
      "payable": false,
      "stateMutability": "nonpayable",
      "type": "function"
    },
    {
      "constant": false,
      "inputs": [
        {
          "name": "prototypeID",
          "type": "uint256"
        },
        {
          "name": "_link",
          "type": "string"
        },
        {
          "name": "req1",
          "type": "uint256"
        },
        {
          "name": "req2",
          "type": "uint256"
        }
      ],
      "name": "releasePrototype",
      "outputs": [],
      "payable": false,
      "stateMutability": "nonpayable",
      "type": "function"
    }
  ],
  "bytecode": "0x60806040527358a5727f2e956d3017c61135b7a9ff56b5b22b76600260006101000a81548173ffffffffffffffffffffffffffffffffffffffff021916908373ffffffffffffffffffffffffffffffffffffffff1602179055506200006362000185565b604051809103906000f08015801562000080573d6000803e3d6000fd5b50600460006101000a81548173ffffffffffffffffffffffffffffffffffffffff021916908373ffffffffffffffffffffffffffffffffffffffff160217905550348015620000ce57600080fd5b50604051604080620038598339810180604052810190808051906020019092919080519060200190929190505050816000806101000a81548173ffffffffffffffffffffffffffffffffffffffff021916908373ffffffffffffffffffffffffffffffffffffffff16021790555080600160006101000a81548173ffffffffffffffffffffffffffffffffffffffff021916908373ffffffffffffffffffffffffffffffffffffffff160217905550505062000196565b604051610fc2806200289783390190565b6126f180620001a66000396000f300608060405260043610610099576000357c0100000000000000000000000000000000000000000000000000000000900463ffffffff1680632db38cc31461009e5780633703cf8a146101e35780633ae84733146102f65780633e10e73e1461037d5780635ad0da06146103f05780636d3616941461045c57806379ee71b5146106465780637a10f174146107f7578063f77ee79d1461080e575b600080fd5b3480156100aa57600080fd5b506100c9600480360381019080803590602001909291905050506108b4565b6040518080602001806020018473ffffffffffffffffffffffffffffffffffffffff1673ffffffffffffffffffffffffffffffffffffffff168152602001838103835286818151815260200191508051906020019080838360005b8381101561013f578082015181840152602081019050610124565b50505050905090810190601f16801561016c5780820380516001836020036101000a031916815260200191505b50838103825285818151815260200191508051906020019080838360005b838110156101a557808201518184015260208101905061018a565b50505050905090810190601f1680156101d25780820380516001836020036101000a031916815260200191505b509550505050505060405180910390f35b3480156101ef57600080fd5b506102f460048036038101908080359060200190929190803590602001908201803590602001908080601f0160208091040260200160405190810160405280939291908181526020018383808284378201915050505050509192919290803590602001908201803590602001908080601f0160208091040260200160405190810160405280939291908181526020018383808284378201915050505050509192919290803590602001908201803590602001908080601f01602080910402602001604051908101604052809392919081815260200183838082843782019150505050505091929192908035906020019092919080359060200190929190505050610a48565b005b34801561030257600080fd5b5061037b60048036038101908080359060200190929190803590602001908201803590602001908080601f01602080910402602001604051908101604052809392919081815260200183838082843782019150505050505091929192908035906020019092919080359060200190929190505050610c21565b005b34801561038957600080fd5b506103ee60048036038101908080359060200190929190803590602001908201803590602001908080601f0160208091040260200160405190810160405280939291908181526020018383808284378201915050505050509192919290505050611015565b005b3480156103fc57600080fd5b50610405611189565b6040518080602001828103825283818151815260200191508051906020019060200280838360005b8381101561044857808201518184015260208101905061042d565b505050509050019250505060405180910390f35b34801561046857600080fd5b50610487600480360381019080803590602001909291905050506112ac565b6040518080602001806020018060200180602001858103855289818151815260200191508051906020019080838360005b838110156104d35780820151818401526020810190506104b8565b50505050905090810190601f1680156105005780820380516001836020036101000a031916815260200191505b50858103845288818151815260200191508051906020019080838360005b8381101561053957808201518184015260208101905061051e565b50505050905090810190601f1680156105665780820380516001836020036101000a031916815260200191505b50858103835287818151815260200191508051906020019080838360005b8381101561059f578082015181840152602081019050610584565b50505050905090810190601f1680156105cc5780820380516001836020036101000a031916815260200191505b50858103825286818151815260200191508051906020019080838360005b838110156106055780820151818401526020810190506105ea565b50505050905090810190601f1680156106325780820380516001836020036101000a031916815260200191505b509850505050505050505060405180910390f35b34801561065257600080fd5b5061067160048036038101908080359060200190929190505050611586565b60405180806020018573ffffffffffffffffffffffffffffffffffffffff1673ffffffffffffffffffffffffffffffffffffffff1681526020018060200180602001848103845288818151815260200191508051906020019080838360005b838110156106eb5780820151818401526020810190506106d0565b50505050905090810190601f1680156107185780820380516001836020036101000a031916815260200191505b50848103835286818151815260200191508051906020019080838360005b83811015610751578082015181840152602081019050610736565b50505050905090810190601f16801561077e5780820380516001836020036101000a031916815260200191505b50848103825285818151815260200191508051906020019080838360005b838110156107b757808201518184015260208101905061079c565b50505050905090810190601f1680156107e45780820380516001836020036101000a031916815260200191505b5097505050505050505060405180910390f35b34801561080357600080fd5b5061080c6117e6565b005b34801561081a57600080fd5b506108396004803603810190808035906020019092919050505061188b565b6040518080602001828103825283818151815260200191508051906020019080838360005b8381101561087957808201518184015260208101905061085e565b50505050905090810190601f1680156108a65780820380516001836020036101000a031916815260200191505b509250505060405180910390f35b6060806000806000809054906101000a900473ffffffffffffffffffffffffffffffffffffffff1690508073ffffffffffffffffffffffffffffffffffffffff16631ac2733c866040518263ffffffff167c010000000000000000000000000000000000000000000000000000000002815260040180828152602001915050600060405180830381600087803b15801561094d57600080fd5b505af1158015610961573d6000803e3d6000fd5b505050506040513d6000823e3d601f19601f82011682018060405250606081101561098b57600080fd5b8101908080516401000000008111156109a357600080fd5b828101905060208101848111156109b957600080fd5b81518560018202830111640100000000821117156109d657600080fd5b505092919060200180516401000000008111156109f257600080fd5b82810190506020810184811115610a0857600080fd5b8151856001820283011164010000000082111715610a2557600080fd5b505092919060200180519060200190929190505050935093509350509193909250565b60006060806000806000806000600260009054906101000a900473ffffffffffffffffffffffffffffffffffffffff1673ffffffffffffffffffffffffffffffffffffffff163273ffffffffffffffffffffffffffffffffffffffff16141515610ab157600080fd5b600560008f81526020019081526020016000209750610acf8e6108b4565b96509650965086886000019080519060200190610aed9291906123ca565b508c886001019080519060200190610b069291906123ca565b50610b0f611a18565b9350935093508388600201819055508288600301819055508188600401819055508b886005019080519060200190610b489291906123ca565b50848860060160006101000a81548173ffffffffffffffffffffffffffffffffffffffff021916908373ffffffffffffffffffffffffffffffffffffffff1602179055508989610b9661244a565b8083815260200182815260200192505050604051809103906000f080158015610bc3573d6000803e3d6000fd5b50905080600360006101000a81548173ffffffffffffffffffffffffffffffffffffffff021916908373ffffffffffffffffffffffffffffffffffffffff160217905550610c118e8c611ca6565b5050505050505050505050505050565b60008060606000606080600260009054906101000a900473ffffffffffffffffffffffffffffffffffffffff1673ffffffffffffffffffffffffffffffffffffffff163273ffffffffffffffffffffffffffffffffffffffff16141515610c8757600080fd5b600360009054906101000a900473ffffffffffffffffffffffffffffffffffffffff1695508573ffffffffffffffffffffffffffffffffffffffff1663ff8b9a4089896040518363ffffffff167c01000000000000000000000000000000000000000000000000000000000281526004018083815260200182815260200192505050602060405180830381600087803b158015610d2357600080fd5b505af1158015610d37573d6000803e3d6000fd5b505050506040513d6020811015610d4d57600080fd5b810190808051906020019092919050505015611004576000809054906101000a900473ffffffffffffffffffffffffffffffffffffffff169450610d908a611586565b93509350935093508473ffffffffffffffffffffffffffffffffffffffff16638fb71fb7858b8686866040518663ffffffff167c01000000000000000000000000000000000000000000000000000000000281526004018080602001806020018673ffffffffffffffffffffffffffffffffffffffff1673ffffffffffffffffffffffffffffffffffffffff168152602001806020018060200185810385528a818151815260200191508051906020019080838360005b83811015610e62578082015181840152602081019050610e47565b50505050905090810190601f168015610e8f5780820380516001836020036101000a031916815260200191505b50858103845289818151815260200191508051906020019080838360005b83811015610ec8578082015181840152602081019050610ead565b50505050905090810190601f168015610ef55780820380516001836020036101000a031916815260200191505b50858103835287818151815260200191508051906020019080838360005b83811015610f2e578082015181840152602081019050610f13565b50505050905090810190601f168015610f5b5780820380516001836020036101000a031916815260200191505b50858103825286818151815260200191508051906020019080838360005b83811015610f94578082015181840152602081019050610f79565b50505050905090810190601f168015610fc15780820380516001836020036101000a031916815260200191505b509950505050505050505050600060405180830381600087803b158015610fe757600080fd5b505af1158015610ffb573d6000803e3d6000fd5b50505050611009565b600080fd5b50505050505050505050565b600080600080600260009054906101000a900473ffffffffffffffffffffffffffffffffffffffff1673ffffffffffffffffffffffffffffffffffffffff163273ffffffffffffffffffffffffffffffffffffffff1614151561107757600080fd5b600660008781526020019081526020016000209350600560008781526020019081526020016000206000018460000190805460018160011615610100020316600290046110c592919061245a565b506110ce611a18565b925092509250828460010181905550818460020181905550808460030181905550848460040190805190602001906111079291906123ca565b506005600087815260200190815260200160002060060160009054906101000a900473ffffffffffffffffffffffffffffffffffffffff168460050160006101000a81548173ffffffffffffffffffffffffffffffffffffffff021916908373ffffffffffffffffffffffffffffffffffffffff160217905550505050505050565b606060008060009054906101000a900473ffffffffffffffffffffffffffffffffffffffff1690508073ffffffffffffffffffffffffffffffffffffffff1663388d8af26040518163ffffffff167c0100000000000000000000000000000000000000000000000000000000028152600401600060405180830381600087803b15801561121557600080fd5b505af1158015611229573d6000803e3d6000fd5b505050506040513d6000823e3d601f19601f82011682018060405250602081101561125357600080fd5b81019080805164010000000081111561126b57600080fd5b8281019050602081018481111561128157600080fd5b815185602082028301116401000000008211171561129e57600080fd5b505092919050505091505090565b6060806060806060600260009054906101000a900473ffffffffffffffffffffffffffffffffffffffff1673ffffffffffffffffffffffffffffffffffffffff163273ffffffffffffffffffffffffffffffffffffffff1614151561131057600080fd5b61135d60056000888152602001908152602001600020600201546005600089815260200190815260200160002060030154600560008a815260200190815260200160002060040154611dc6565b905060056000878152602001908152602001600020600001600560008881526020019081526020016000206001016005600089815260200190815260200160002060050183838054600181600116156101000203166002900480601f0160208091040260200160405190810160405280929190818152602001828054600181600116156101000203166002900480156114375780601f1061140c57610100808354040283529160200191611437565b820191906000526020600020905b81548152906001019060200180831161141a57829003601f168201915b50505050509350828054600181600116156101000203166002900480601f0160208091040260200160405190810160405280929190818152602001828054600181600116156101000203166002900480156114d35780601f106114a8576101008083540402835291602001916114d3565b820191906000526020600020905b8154815290600101906020018083116114b657829003601f168201915b50505050509250818054600181600116156101000203166002900480601f01602080910402602001604051908101604052809291908181526020018280546001816001161561010002031660029004801561156f5780601f106115445761010080835404028352916020019161156f565b820191906000526020600020905b81548152906001019060200180831161155257829003601f168201915b505050505091509450945094509450509193509193565b606060006060806060600260009054906101000a900473ffffffffffffffffffffffffffffffffffffffff1673ffffffffffffffffffffffffffffffffffffffff163273ffffffffffffffffffffffffffffffffffffffff161415156115eb57600080fd5b61163860066000888152602001908152602001600020600101546006600089815260200190815260200160002060020154600660008a815260200190815260200160002060030154611dc6565b9050600660008781526020019081526020016000206000016006600088815260200190815260200160002060050160009054906101000a900473ffffffffffffffffffffffffffffffffffffffff166006600089815260200190815260200160002060040183838054600181600116156101000203166002900480601f0160208091040260200160405190810160405280929190818152602001828054600181600116156101000203166002900480156117335780601f1061170857610100808354040283529160200191611733565b820191906000526020600020905b81548152906001019060200180831161171657829003601f168201915b50505050509350818054600181600116156101000203166002900480601f0160208091040260200160405190810160405280929190818152602001828054600181600116156101000203166002900480156117cf5780601f106117a4576101008083540402835291602001916117cf565b820191906000526020600020905b8154815290600101906020018083116117b257829003601f168201915b505050505091509450945094509450509193509193565b60008060009054906101000a900473ffffffffffffffffffffffffffffffffffffffff1690508073ffffffffffffffffffffffffffffffffffffffff16634eef98016040518163ffffffff167c0100000000000000000000000000000000000000000000000000000000028152600401600060405180830381600087803b15801561187057600080fd5b505af1158015611884573d6000803e3d6000fd5b5050505050565b60606000600260009054906101000a900473ffffffffffffffffffffffffffffffffffffffff1673ffffffffffffffffffffffffffffffffffffffff163273ffffffffffffffffffffffffffffffffffffffff161415156118eb57600080fd5b600160009054906101000a900473ffffffffffffffffffffffffffffffffffffffff1690508073ffffffffffffffffffffffffffffffffffffffff1663f77ee79d846040518263ffffffff167c010000000000000000000000000000000000000000000000000000000002815260040180828152602001915050600060405180830381600087803b15801561197f57600080fd5b505af1158015611993573d6000803e3d6000fd5b505050506040513d6000823e3d601f19601f8201168201806040525060208110156119bd57600080fd5b8101908080516401000000008111156119d557600080fd5b828101905060208101848111156119eb57600080fd5b8151856001820283011164010000000082111715611a0857600080fd5b5050929190505050915050919050565b600080600080600080600460009054906101000a900473ffffffffffffffffffffffffffffffffffffffff1673ffffffffffffffffffffffffffffffffffffffff166365c72840426040518263ffffffff167c010000000000000000000000000000000000000000000000000000000002815260040180828152602001915050602060405180830381600087803b158015611ab257600080fd5b505af1158015611ac6573d6000803e3d6000fd5b505050506040513d6020811015611adc57600080fd5b810190808051906020019092919050505060ff169250600460009054906101000a900473ffffffffffffffffffffffffffffffffffffffff1673ffffffffffffffffffffffffffffffffffffffff1663a324ad24426040518263ffffffff167c010000000000000000000000000000000000000000000000000000000002815260040180828152602001915050602060405180830381600087803b158015611b8357600080fd5b505af1158015611b97573d6000803e3d6000fd5b505050506040513d6020811015611bad57600080fd5b810190808051906020019092919050505060ff169150600460009054906101000a900473ffffffffffffffffffffffffffffffffffffffff1673ffffffffffffffffffffffffffffffffffffffff166392d66313426040518263ffffffff167c010000000000000000000000000000000000000000000000000000000002815260040180828152602001915050602060405180830381600087803b158015611c5457600080fd5b505af1158015611c68573d6000803e3d6000fd5b505050506040513d6020811015611c7e57600080fd5b810190808051906020019092919050505061ffff169050828282955095509550505050909192565b6000600160009054906101000a900473ffffffffffffffffffffffffffffffffffffffff1690508073ffffffffffffffffffffffffffffffffffffffff16632eded4cc84846040518363ffffffff167c01000000000000000000000000000000000000000000000000000000000281526004018083815260200180602001828103825283818151815260200191508051906020019080838360005b83811015611d5c578082015181840152602081019050611d41565b50505050905090810190601f168015611d895780820380516001836020036101000a031916815260200191505b509350505050600060405180830381600087803b158015611da957600080fd5b505af1158015611dbd573d6000803e3d6000fd5b50505050505050565b6060806060806060600460009054906101000a900473ffffffffffffffffffffffffffffffffffffffff1673ffffffffffffffffffffffffffffffffffffffff166324233393896040518263ffffffff167c010000000000000000000000000000000000000000000000000000000002815260040180828152602001915050600060405180830381600087803b158015611e5f57600080fd5b505af1158015611e73573d6000803e3d6000fd5b505050506040513d6000823e3d601f19601f820116820180604052506020811015611e9d57600080fd5b810190808051640100000000811115611eb557600080fd5b82810190506020810184811115611ecb57600080fd5b8151856001820283011164010000000082111715611ee857600080fd5b50509291905050509350600460009054906101000a900473ffffffffffffffffffffffffffffffffffffffff1673ffffffffffffffffffffffffffffffffffffffff166324233393886040518263ffffffff167c010000000000000000000000000000000000000000000000000000000002815260040180828152602001915050600060405180830381600087803b158015611f8357600080fd5b505af1158015611f97573d6000803e3d6000fd5b505050506040513d6000823e3d601f19601f820116820180604052506020811015611fc157600080fd5b810190808051640100000000811115611fd957600080fd5b82810190506020810184811115611fef57600080fd5b815185600182028301116401000000008211171561200c57600080fd5b50509291905050509250600460009054906101000a900473ffffffffffffffffffffffffffffffffffffffff1673ffffffffffffffffffffffffffffffffffffffff166324233393876040518263ffffffff167c010000000000000000000000000000000000000000000000000000000002815260040180828152602001915050600060405180830381600087803b1580156120a757600080fd5b505af11580156120bb573d6000803e3d6000fd5b505050506040513d6000823e3d601f19601f8201168201806040525060208110156120e557600080fd5b8101908080516401000000008111156120fd57600080fd5b8281019050602081018481111561211357600080fd5b815185600182028301116401000000008211171561213057600080fd5b505092919050505091506121ed826121df6040805190810160405280600181526020017f2e000000000000000000000000000000000000000000000000000000000000008152506121d1876121c36040805190810160405280600181526020017f2e000000000000000000000000000000000000000000000000000000000000008152508b6121fd90919063ffffffff16565b6121fd90919063ffffffff16565b6121fd90919063ffffffff16565b6121fd90919063ffffffff16565b9050809450505050509392505050565b606080606080606060008088955087945084518651016040519080825280601f01601f1916602001820160405280156122455781602001602082028038833980820191505090505b509350839250600091505b855182101561230357858281518110151561226757fe5b9060200101517f010000000000000000000000000000000000000000000000000000000000000090047f01000000000000000000000000000000000000000000000000000000000000000283828060010193508151811015156122c657fe5b9060200101907effffffffffffffffffffffffffffffffffffffffffffffffffffffffffffff1916908160001a9053508180600101925050612250565b600091505b84518210156123bb57848281518110151561231f57fe5b9060200101517f010000000000000000000000000000000000000000000000000000000000000090047f010000000000000000000000000000000000000000000000000000000000000002838280600101935081518110151561237e57fe5b9060200101907effffffffffffffffffffffffffffffffffffffffffffffffffffffffffffff1916908160001a9053508180600101925050612308565b82965050505050505092915050565b828054600181600116156101000203166002900490600052602060002090601f016020900481019282601f1061240b57805160ff1916838001178555612439565b82800160010185558215612439579182015b8281111561243857825182559160200191906001019061241d565b5b50905061244691906124e1565b5090565b6040516101bf8061250783390190565b828054600181600116156101000203166002900490600052602060002090601f016020900481019282601f1061249357805485556124d0565b828001600101855582156124d057600052602060002091601f016020900482015b828111156124cf5782548255916001019190600101906124b4565b5b5090506124dd91906124e1565b5090565b61250391905b808211156124ff5760008160009055506001016124e7565b5090565b905600608060405234801561001057600080fd5b506040516040806101bf8339810180604052810190808051906020019092919080519060200190929190505050600160008390806001815401808255809150509060018203906000526020600020016000909192909190915055505060016000829080600181540180825580915050906001820390600052602060002001600090919290919091505550505050610113806100ac6000396000f300608060405260043610603f576000357c0100000000000000000000000000000000000000000000000000000000900463ffffffff168063ff8b9a40146044575b600080fd5b348015604f57600080fd5b50607660048036038101908080359060200190929190803590602001909291905050506090565b604051808215151515815260200191505060405180910390f35b60008260008081548110151560a157fe5b906000526020600020015410801560d05750816000600181548110151560c357fe5b9060005260206000200154115b1560dc576001905060e1565b600090505b929150505600a165627a7a7230582000fc3225c812b5d6d6f84ae74b1d5cac4c6774338cc1a2eb575367d1171bc9e20029a165627a7a72305820ce107f91181fdf8e45e2164db037f021d3e116074926cbb4b41dda6cf96f092c0029608060405234801561001057600080fd5b50610fa2806100206000396000f3006080604052600436106100db576000357c0100000000000000000000000000000000000000000000000000000000900463ffffffff16806324233393146100e05780633e239e1a146101865780634ac1ad78146101cd57806362ba96871461021457806365c728401461028d5780637f791833146102d45780638aa001fc146103405780638c8d98a0146103875780639054bdec146103e657806392d663131461046c578063a324ad24146104b5578063a6f0e577146104fc578063b199993714610545578063b238ad0e14610586578063fa93f883146105de575b600080fd5b3480156100ec57600080fd5b5061010b60048036038101908080359060200190929190505050610625565b6040518080602001828103825283818151815260200191508051906020019080838360005b8381101561014b578082015181840152602081019050610130565b50505050905090810190601f1680156101785780820380516001836020036101000a031916815260200191505b509250505060405180910390f35b34801561019257600080fd5b506101b16004803603810190808035906020019092919050505061077c565b604051808260ff1660ff16815260200191505060405180910390f35b3480156101d957600080fd5b506101f8600480360381019080803590602001909291905050506107a9565b604051808260ff1660ff16815260200191505060405180910390f35b34801561022057600080fd5b50610277600480360381019080803561ffff169060200190929190803560ff169060200190929190803560ff169060200190929190803560ff169060200190929190803560ff1690602001909291905050506107d0565b6040518082815260200191505060405180910390f35b34801561029957600080fd5b506102b8600480360381019080803590602001909291905050506107ec565b604051808260ff1660ff16815260200191505060405180910390f35b3480156102e057600080fd5b5061032a600480360381019080803561ffff169060200190929190803560ff169060200190929190803560ff169060200190929190803560ff169060200190929190505050610802565b6040518082815260200191505060405180910390f35b34801561034c57600080fd5b5061036b6004803603810190808035906020019092919050505061081d565b604051808260ff1660ff16815260200191505060405180910390f35b34801561039357600080fd5b506103d0600480360381019080803561ffff169060200190929190803560ff169060200190929190803560ff169060200190929190505050610833565b6040518082815260200191505060405180910390f35b3480156103f257600080fd5b50610456600480360381019080803561ffff169060200190929190803560ff169060200190929190803560ff169060200190929190803560ff169060200190929190803560ff169060200190929190803560ff16906020019092919050505061084e565b6040518082815260200191505060405180910390f35b34801561047857600080fd5b5061049760048036038101908080359060200190929190505050610af5565b604051808261ffff1661ffff16815260200191505060405180910390f35b3480156104c157600080fd5b506104e060048036038101908080359060200190929190505050610ba0565b604051808260ff1660ff16815260200191505060405180910390f35b34801561050857600080fd5b5061052b600480360381019080803561ffff169060200190929190505050610bb6565b604051808215151515815260200191505060405180910390f35b34801561055157600080fd5b5061057060048036038101908080359060200190929190505050610c37565b6040518082815260200191505060405180910390f35b34801561059257600080fd5b506105c2600480360381019080803560ff169060200190929190803561ffff169060200190929190505050610c70565b604051808260ff1660ff16815260200191505060405180910390f35b3480156105ea57600080fd5b5061060960048036038101908080359060200190929190505050610d3c565b604051808260ff1660ff16815260200191505060405180910390f35b60606000806060600080861415610673576040805190810160405280600181526020017f30000000000000000000000000000000000000000000000000000000000000008152509450610773565b8593505b60008414151561069d578280600101935050600a8481151561069557fe5b049350610677565b826040519080825280601f01601f1916602001820160405280156106d05781602001602082028038833980820191505090505b5091506001830390505b60008614151561076f57600a868115156106f057fe5b066030017f01000000000000000000000000000000000000000000000000000000000000000282828060019003935081518110151561072b57fe5b9060200101907effffffffffffffffffffffffffffffffffffffffffffffffffffffffffffff1916908160001a905350600a8681151561076757fe5b0495506106da565b8194505b50505050919050565b60006018603c808481151561078d57fe5b0481151561079757fe5b048115156107a157fe5b069050919050565b60006007600462015180848115156107bd57fe5b04018115156107c857fe5b069050919050565b60006107e18686868686600061084e565b905095945050505050565b60006107f782610d5d565b604001519050919050565b60006108138585858560008061084e565b9050949350505050565b6000603c8281151561082b57fe5b069050919050565b6000610845848484600080600061084e565b90509392505050565b600080610859610efe565b6107b291505b8861ffff168261ffff1610156108a25761087882610bb6565b1561088b576301e2850083019250610895565b6301e13380830192505b818060010192505061085f565b601f816000600c811015156108b357fe5b602002019060ff16908160ff16815250506108cd89610bb6565b156108f957601d816001600c811015156108e357fe5b602002019060ff16908160ff168152505061091c565b601c816001600c8110151561090a57fe5b602002019060ff16908160ff16815250505b601f816002600c8110151561092d57fe5b602002019060ff16908160ff1681525050601e816003600c8110151561094f57fe5b602002019060ff16908160ff1681525050601f816004600c8110151561097157fe5b602002019060ff16908160ff1681525050601e816005600c8110151561099357fe5b602002019060ff16908160ff1681525050601f816006600c811015156109b557fe5b602002019060ff16908160ff1681525050601f816007600c811015156109d757fe5b602002019060ff16908160ff1681525050601e816008600c811015156109f957fe5b602002019060ff16908160ff1681525050601f816009600c81101515610a1b57fe5b602002019060ff16908160ff1681525050601e81600a600c81101515610a3d57fe5b602002019060ff16908160ff1681525050601f81600b600c81101515610a5f57fe5b602002019060ff16908160ff1681525050600191505b8760ff168261ffff161015610ab757806001830361ffff16600c81101515610a9957fe5b602002015160ff166201518002830192508180600101925050610a75565b6001870360ff166201518002830192508560ff16610e1002830192508460ff16603c02830192508360ff168301925082925050509695505050505050565b600080600080600092506301e1338085811515610b0e57fe5b046107b261ffff16019150610b286107b261ffff16610c37565b610b358361ffff16610c37565b039050806301e285000283019250806107b2830361ffff16036301e1338002830192505b84831115610b9557610b6d60018303610bb6565b15610b80576301e2850083039250610b8a565b6301e13380830392505b600182039150610b59565b819350505050919050565b6000610bab82610d5d565b602001519050919050565b60008060048361ffff16811515610bc957fe5b0661ffff16141515610bde5760009050610c32565b600060648361ffff16811515610bf057fe5b0661ffff16141515610c055760019050610c32565b60006101908361ffff16811515610c1857fe5b0661ffff16141515610c2d5760009050610c32565b600190505b919050565b600060018203915061019082811515610c4c57fe5b04606483811515610c5957fe5b04600484811515610c6657fe5b0403019050919050565b600060018360ff161480610c87575060038360ff16145b80610c95575060058360ff16145b80610ca3575060078360ff16145b80610cb1575060088360ff16145b80610cbf5750600a8360ff16145b80610ccd5750600c8360ff16145b15610cdb57601f9050610d36565b60048360ff161480610cf0575060068360ff16145b80610cfe575060098360ff16145b80610d0c5750600b8360ff16145b15610d1a57601e9050610d36565b610d2382610bb6565b15610d3157601d9050610d36565b601c90505b92915050565b6000603c8083811515610d4b57fe5b04811515610d5557fe5b069050919050565b610d65610f22565b60008060008060009350610d7886610af5565b856000019061ffff16908161ffff1681525050610d9a6107b261ffff16610c37565b610dab866000015161ffff16610c37565b039250826301e285000284019350826107b286600001510361ffff16036301e133800284019350600191505b600c8260ff16111515610e2f57610df2828660000151610c70565b60ff1662015180029050858482011115610e1d5781856020019060ff16908160ff1681525050610e2f565b80840193508180600101925050610dd7565b600191505b610e4685602001518660000151610c70565b60ff168260ff16111515610e8d57858462015180011115610e785781856040019060ff16908160ff1681525050610e8d565b62015180840193508180600101925050610e34565b610e968661077c565b856060019060ff16908160ff1681525050610eb086610d3c565b856080019060ff16908160ff1681525050610eca8661081d565b8560a0019060ff16908160ff1681525050610ee4866107a9565b8560c0019060ff16908160ff168152505050505050919050565b61018060405190810160405280600c90602082028038833980820191505090505090565b60e060405190810160405280600061ffff168152602001600060ff168152602001600060ff168152602001600060ff168152602001600060ff168152602001600060ff168152602001600060ff16815250905600a165627a7a72305820cafb6909ba43c1ea90e4d8e4c86eb949015208a967ee0a8615e14adf2048dd340029",
  "source": "pragma solidity^0.4.20;\n\nimport \"./Customer.sol\";\nimport \"./Appendix1.sol\";\nimport \"./DateTime.sol\";\nimport \"./Strings.sol\";\nimport \"./Appendix3.sol\";\n\ncontract Company {\n\n    using Strings for string;\n\n    address customerContractAddress;\n    address app1Address;\n    address companyAddress = 0x58a5727f2E956D3017C61135b7a9Ff56b5B22b76;\n    address app3Address;\n\n    constructor (address customerAddr, address app1Addr) public {\n        customerContractAddress = customerAddr;\n        app1Address = app1Addr;\n    }\n\n    modifier onlyCompany() {\n        require(tx.origin == companyAddress);\n        _;\n    }\n\n    DateTime datetime = new DateTime();\n\n    struct Model {\n        string name;\n        string author;\n        uint _day;\n        uint _month;\n        uint _year;\n        string path;\n        address customerAddr;\n    }\n\n    mapping(uint => Model) models;\n\n    struct Prototype {\n        string name;\n        uint _day;\n        uint _month;\n        uint _year;\n        string path;\n        address customerAddr;\n    }\n\n    mapping(uint => Prototype) prototypes;\n\n    //getTime (only in the other functions)\n    function getTime() internal returns(uint, uint, uint) {\n        uint currentDay = datetime.getDay(now);\n        uint currentMonth = datetime.getMonth(now);\n        uint currentYear = datetime.getYear(now);\n        return (currentDay, currentMonth, currentYear);\n    }\n\n    //(just for the user)\n    function presentTime(uint _day, uint _month, uint _year) internal returns(string) {\n        string memory dayInString = datetime.uinttostr(_day);\n        string memory monthInString = datetime.uinttostr(_month);\n        string memory yearInString = datetime.uinttostr(_year);\n        string memory fullDate = dayInString.concat(\".\").concat(monthInString).concat(\".\").concat(yearInString);\n        return (fullDate);\n    }\n\n    function getDemands() public returns(uint[]) {\n        Customer customer = Customer(customerContractAddress);\n        return customer.getUnprocessed();\n    }\n\n    function clearDemands() public {\n        Customer customer = Customer(customerContractAddress);\n        customer.clearUnprocessed();\n    }\n\n    //get demand\n    function getSpecificDemand(uint demandID) returns(string, string, address) {\n        Customer customer = Customer(customerContractAddress);\n        return customer.getDemand(demandID);\n    }\n\n    //store model\n    function storeModel(uint demandID, string _author, string _path, string _material, uint req1, uint req2) onlyCompany public {\n        Model model = models[demandID];\n        var (name, _details, customerAddress) = getSpecificDemand(demandID);\n        model.name = name;\n        model.author = _author;\n        var (nowDay, nowMonth, nowYear) = getTime();\n        model._day = nowDay;\n        model._month = nowMonth;\n        model._year = nowYear;\n        model.path = _path;\n        model.customerAddr = customerAddress;\n        Appendix3 app3 = new Appendix3(req1, req2);\n        app3Address = address(app3);\n        askForSupply(demandID, _material);\n    }\n\n    //askForSupply (in the other function)\n    function askForSupply(uint modelID, string _material) internal {\n        Appendix1 app1 = Appendix1(app1Address);\n        app1.makeRequest(modelID, _material);\n    }\n\n    //get Supply\n    function getSupply(uint modelID) onlyCompany public returns(string) {\n        Appendix1 app1 = Appendix1(app1Address);\n        return app1.getSupply(modelID);\n    }\n\n    //get Model (both on its own and in the other function)\n    function getModel(uint modelID) onlyCompany public returns(string, string, string, string) {\n        string memory _date = presentTime(models[modelID]._day, models[modelID]._month, models[modelID]._year);\n        return(models[modelID].name, models[modelID].author, models[modelID].path, _date);\n    }\n\n    //storePrototype\n    function storePrototype(uint prototypeID, string _path) onlyCompany public {\n        Prototype prototype = prototypes[prototypeID];\n        prototype.name = models[prototypeID].name;\n        var (nowDay, nowMonth, nowYear) = getTime();\n        prototype._day = nowDay;\n        prototype._month = nowMonth;\n        prototype._year = nowYear;\n        prototype.path = _path;\n        prototype.customerAddr = models[prototypeID].customerAddr;\n    }\n\n    //get prototype (on its own and to test it)\n    function getPrototype(uint prototypeID) onlyCompany public returns(string, address, string, string) {\n        string memory _date = presentTime(prototypes[prototypeID]._day, prototypes[prototypeID]._month, prototypes[prototypeID]._year);\n        return(prototypes[prototypeID].name, prototypes[prototypeID].customerAddr, prototypes[prototypeID].path, _date);\n    }\n\n    //release prototype\n    function releasePrototype(uint prototypeID, string _link, uint req1, uint req2) onlyCompany public {\n        Appendix3 app3 = Appendix3(app3Address);\n        if (app3.checkRequirements(req1, req2)) {\n            Customer customer = Customer(customerContractAddress);\n            var (name, customerAddr, path, date) = getPrototype(prototypeID);\n            customer.storePrototype(name, _link, customerAddr, path, date);\n        }\n        else {\n            throw;\n        }\n    }\n\n\n}",
  "sourcePath": "/home/anna/Desktop/secondStage/project1folder/contracts/Company.sol",
  "compiler": {
    "name": "solc",
    "version": "0.4.24+commit.e67f0147.Emscripten.clang"
  },
  "schemaVersion": "2.0.0",
  "updatedAt": "2018-10-14T18:00:35.581Z"
}