{
  "contractName": "Tracking",
  "abi": [
    {
      "constant": true,
      "inputs": [],
      "name": "recentLocation",
      "outputs": [
        {
          "name": "delegate",
          "type": "address"
        },
        {
          "name": "longitude",
          "type": "uint128"
        },
        {
          "name": "latitude",
          "type": "uint128"
        }
      ],
      "payable": false,
      "stateMutability": "view",
      "type": "function"
    },
    {
      "constant": false,
      "inputs": [
        {
          "name": "vin",
          "type": "uint256"
        },
        {
          "name": "name",
          "type": "string"
        },
        {
          "name": "model",
          "type": "string"
        },
        {
          "name": "y",
          "type": "uint16"
        },
        {
          "name": "m",
          "type": "uint8"
        },
        {
          "name": "d",
          "type": "uint8"
        }
      ],
      "name": "setVehicle",
      "outputs": [],
      "payable": false,
      "stateMutability": "nonpayable",
      "type": "function"
    },
    {
      "constant": true,
      "inputs": [
        {
          "name": "",
          "type": "uint256"
        }
      ],
      "name": "locations",
      "outputs": [
        {
          "name": "delegate",
          "type": "address"
        },
        {
          "name": "longitude",
          "type": "uint128"
        },
        {
          "name": "latitude",
          "type": "uint128"
        }
      ],
      "payable": false,
      "stateMutability": "view",
      "type": "function"
    },
    {
      "constant": true,
      "inputs": [
        {
          "name": "vin",
          "type": "uint256"
        }
      ],
      "name": "getVehicleInfo",
      "outputs": [
        {
          "name": "",
          "type": "uint256"
        },
        {
          "name": "",
          "type": "string"
        },
        {
          "name": "",
          "type": "string"
        },
        {
          "name": "",
          "type": "uint16"
        },
        {
          "name": "",
          "type": "uint8"
        },
        {
          "name": "",
          "type": "uint8"
        }
      ],
      "payable": false,
      "stateMutability": "view",
      "type": "function"
    },
    {
      "constant": true,
      "inputs": [],
      "name": "item",
      "outputs": [
        {
          "name": "id",
          "type": "bytes32"
        }
      ],
      "payable": false,
      "stateMutability": "view",
      "type": "function"
    },
    {
      "constant": false,
      "inputs": [
        {
          "name": "id",
          "type": "bytes32"
        }
      ],
      "name": "vehicleTracking",
      "outputs": [],
      "payable": false,
      "stateMutability": "nonpayable",
      "type": "function"
    },
    {
      "constant": false,
      "inputs": [
        {
          "name": "longitude",
          "type": "uint128"
        },
        {
          "name": "latitude",
          "type": "uint128"
        }
      ],
      "name": "saveLocation",
      "outputs": [],
      "payable": false,
      "stateMutability": "nonpayable",
      "type": "function"
    },
    {
      "constant": true,
      "inputs": [
        {
          "name": "idx",
          "type": "uint256"
        }
      ],
      "name": "getLocationHistory",
      "outputs": [
        {
          "name": "delegate",
          "type": "address"
        },
        {
          "name": "longitude",
          "type": "uint128"
        },
        {
          "name": "latitude",
          "type": "uint128"
        }
      ],
      "payable": false,
      "stateMutability": "view",
      "type": "function"
    },
    {
      "constant": true,
      "inputs": [],
      "name": "getLastLocation",
      "outputs": [
        {
          "components": [
            {
              "name": "delegate",
              "type": "address"
            },
            {
              "name": "longitude",
              "type": "uint128"
            },
            {
              "name": "latitude",
              "type": "uint128"
            }
          ],
          "name": "recentLocation",
          "type": "tuple"
        }
      ],
      "payable": false,
      "stateMutability": "view",
      "type": "function"
    }
  ],
  "bytecode": "0x6080604052336000806101000a81548173ffffffffffffffffffffffffffffffffffffffff021916908373ffffffffffffffffffffffffffffffffffffffff160217905550611214806100536000396000f300608060405260043610610099576000357c0100000000000000000000000000000000000000000000000000000000900463ffffffff168063142d95701461009e57806348e918c5146100dd578063522dc6af1461010a5780638b9564ad14610133578063af90d9971461015e578063b9e0db3514610187578063eb1a3f02146101c6578063ece9e721146101ef578063f2a4a82e14610231575b600080fd5b3480156100aa57600080fd5b506100c560048036036100c09190810190610ddd565b61025c565b6040516100d493929190610f91565b60405180910390f35b3480156100e957600080fd5b506100f26102f6565b60405161010193929190610f91565b60405180910390f35b34801561011657600080fd5b50610131600480360361012c9190810190610d78565b610366565b005b34801561013f57600080fd5b506101486103a2565b6040516101559190610fe3565b60405180910390f35b34801561016a57600080fd5b5061018560048036036101809190810190610e06565b6104cd565b005b34801561019357600080fd5b506101ae60048036036101a99190810190610ddd565b6106be565b6040516101bd93929190610f91565b60405180910390f35b3480156101d257600080fd5b506101ed60048036036101e89190810190610da1565b61074f565b005b3480156101fb57600080fd5b5061021660048036036102119190810190610ddd565b61089e565b60405161022896959493929190610ffe565b60405180910390f35b34801561023d57600080fd5b50610246610af3565b6040516102539190610fc8565b60405180910390f35b60008060008060078581548110151561027157fe5b906000526020600020906002020190508060000160009054906101000a900473ffffffffffffffffffffffffffffffffffffffff168160010160009054906101000a90046fffffffffffffffffffffffffffffffff168260010160109054906101000a90046fffffffffffffffffffffffffffffffff16935093509350509193909250565b60088060000160009054906101000a900473ffffffffffffffffffffffffffffffffffffffff16908060010160009054906101000a90046fffffffffffffffffffffffffffffffff16908060010160109054906101000a90046fffffffffffffffffffffffffffffffff16905083565b60646007816103759190610aff565b50602060405190810160405280826000191681525060066000820151816000019060001916905590505050565b6103aa610b31565b60076001600780549050038154811015156103c157fe5b9060005260206000209060020201606060405190810160405290816000820160009054906101000a900473ffffffffffffffffffffffffffffffffffffffff1673ffffffffffffffffffffffffffffffffffffffff1673ffffffffffffffffffffffffffffffffffffffff1681526020016001820160009054906101000a90046fffffffffffffffffffffffffffffffff166fffffffffffffffffffffffffffffffff166fffffffffffffffffffffffffffffffff1681526020016001820160109054906101000a90046fffffffffffffffffffffffffffffffff166fffffffffffffffffffffffffffffffff166fffffffffffffffffffffffffffffffff1681525050905080905090565b6000809054906101000a900473ffffffffffffffffffffffffffffffffffffffff1673ffffffffffffffffffffffffffffffffffffffff163373ffffffffffffffffffffffffffffffffffffffff1614151561052857600080fd5b6060604051908101604052808461ffff1681526020018360ff1681526020018260ff16815250600160008201518160000160006101000a81548161ffff021916908361ffff16021790555060208201518160000160026101000a81548160ff021916908360ff16021790555060408201518160000160036101000a81548160ff021916908360ff160217905550905050846005600088815260200190815260200160002060010190805190602001906105e2929190610b8d565b508360056000888152602001908152602001600020600201908051906020019061060d929190610b8d565b506001600560008881526020019081526020016000206000016000820160009054906101000a900461ffff168160000160006101000a81548161ffff021916908361ffff1602179055506000820160029054906101000a900460ff168160000160026101000a81548160ff021916908360ff1602179055506000820160039054906101000a900460ff168160000160036101000a81548160ff021916908360ff160217905550905050505050505050565b6007818154811015156106cd57fe5b90600052602060002090600202016000915090508060000160009054906101000a900473ffffffffffffffffffffffffffffffffffffffff16908060010160009054906101000a90046fffffffffffffffffffffffffffffffff16908060010160109054906101000a90046fffffffffffffffffffffffffffffffff16905083565b60076060604051908101604052803373ffffffffffffffffffffffffffffffffffffffff168152602001846fffffffffffffffffffffffffffffffff168152602001836fffffffffffffffffffffffffffffffff168152509080600181540180825580915050906001820390600052602060002090600202016000909192909190915060008201518160000160006101000a81548173ffffffffffffffffffffffffffffffffffffffff021916908373ffffffffffffffffffffffffffffffffffffffff16021790555060208201518160010160006101000a8154816fffffffffffffffffffffffffffffffff02191690836fffffffffffffffffffffffffffffffff16021790555060408201518160010160106101000a8154816fffffffffffffffffffffffffffffffff02191690836fffffffffffffffffffffffffffffffff1602179055505050505050565b600060608060008060008060009054906101000a900473ffffffffffffffffffffffffffffffffffffffff1673ffffffffffffffffffffffffffffffffffffffff163373ffffffffffffffffffffffffffffffffffffffff1614151561090357600080fd5b8660056000898152602001908152602001600020600101600560008a8152602001908152602001600020600201600560008b815260200190815260200160002060000160000160009054906101000a900461ffff16600560008c815260200190815260200160002060000160000160029054906101000a900460ff16600560008d815260200190815260200160002060000160000160039054906101000a900460ff16848054600181600116156101000203166002900480601f016020809104026020016040519081016040528092919081815260200182805460018160011615610100020316600290048015610a3b5780601f10610a1057610100808354040283529160200191610a3b565b820191906000526020600020905b815481529060010190602001808311610a1e57829003601f168201915b50505050509450838054600181600116156101000203166002900480601f016020809104026020016040519081016040528092919081815260200182805460018160011615610100020316600290048015610ad75780601f10610aac57610100808354040283529160200191610ad7565b820191906000526020600020905b815481529060010190602001808311610aba57829003601f168201915b5050505050935095509550955095509550955091939550919395565b60068060000154905081565b815481835581811115610b2c57600202816002028360005260206000209182019101610b2b9190610c0d565b5b505050565b606060405190810160405280600073ffffffffffffffffffffffffffffffffffffffff16815260200160006fffffffffffffffffffffffffffffffff16815260200160006fffffffffffffffffffffffffffffffff1681525090565b828054600181600116156101000203166002900490600052602060002090601f016020900481019282601f10610bce57805160ff1916838001178555610bfc565b82800160010185558215610bfc579182015b82811115610bfb578251825591602001919060010190610be0565b5b509050610c099190610c99565b5090565b610c9691905b80821115610c9257600080820160006101000a81549073ffffffffffffffffffffffffffffffffffffffff02191690556001820160006101000a8154906fffffffffffffffffffffffffffffffff02191690556001820160106101000a8154906fffffffffffffffffffffffffffffffff021916905550600201610c13565b5090565b90565b610cbb91905b80821115610cb7576000816000905550600101610c9f565b5090565b90565b6000610cca823561113c565b905092915050565b600082601f8301121515610ce557600080fd5b8135610cf8610cf38261109a565b61106d565b91508082526020830160208301858383011115610d1457600080fd5b610d1f838284611187565b50505092915050565b6000610d348235611146565b905092915050565b6000610d488235611162565b905092915050565b6000610d5c8235611170565b905092915050565b6000610d70823561117a565b905092915050565b600060208284031215610d8a57600080fd5b6000610d9884828501610cbe565b91505092915050565b60008060408385031215610db457600080fd5b6000610dc285828601610d28565b9250506020610dd385828601610d28565b9150509250929050565b600060208284031215610def57600080fd5b6000610dfd84828501610d50565b91505092915050565b60008060008060008060c08789031215610e1f57600080fd5b6000610e2d89828a01610d50565b965050602087013567ffffffffffffffff811115610e4a57600080fd5b610e5689828a01610cd2565b955050604087013567ffffffffffffffff811115610e7357600080fd5b610e7f89828a01610cd2565b9450506060610e9089828a01610d3c565b9350506080610ea189828a01610d64565b92505060a0610eb289828a01610d64565b9150509295509295509295565b610ec8816110d1565b82525050565b610ed7816110f1565b82525050565b6000610ee8826110c6565b808452610efc816020860160208601611196565b610f05816111c9565b602085010191505092915050565b606082016000820151610f296000850182610ebf565b506020820151610f3c6020850182610f55565b506040820151610f4f6040850182610f55565b50505050565b610f5e816110fb565b82525050565b610f6d81611117565b82525050565b610f7c81611125565b82525050565b610f8b8161112f565b82525050565b6000606082019050610fa66000830186610ebf565b610fb36020830185610f55565b610fc06040830184610f55565b949350505050565b6000602082019050610fdd6000830184610ece565b92915050565b6000606082019050610ff86000830184610f13565b92915050565b600060c0820190506110136000830189610f73565b81810360208301526110258188610edd565b905081810360408301526110398187610edd565b90506110486060830186610f64565b6110556080830185610f82565b61106260a0830184610f82565b979650505050505050565b6000604051905081810181811067ffffffffffffffff8211171561109057600080fd5b8060405250919050565b600067ffffffffffffffff8211156110b157600080fd5b601f19601f8301169050602081019050919050565b600081519050919050565b600073ffffffffffffffffffffffffffffffffffffffff82169050919050565b6000819050919050565b60006fffffffffffffffffffffffffffffffff82169050919050565b600061ffff82169050919050565b6000819050919050565b600060ff82169050919050565b6000819050919050565b60006fffffffffffffffffffffffffffffffff82169050919050565b600061ffff82169050919050565b6000819050919050565b600060ff82169050919050565b82818337600083830152505050565b60005b838110156111b4578082015181840152602081019050611199565b838111156111c3576000848401525b50505050565b6000601f19601f83011690509190505600a265627a7a72305820f3d58738651dc26138b3c8671a33af68d6b3ac0cc888d09d5966f5187d3248606c6578706572696d656e74616cf50037",
  "source": "pragma solidity ^0.4.20;\npragma experimental ABIEncoderV2;\n\nimport \"./Vehicle.sol\";\n\n//Tracking vehicle and save and get Location History\ncontract Tracking is Vehicle{\n    \n    struct Location {\n        address delegate;\n        uint128 longitude;\n        uint128 latitude; \n    }\n\n    struct Item {\n        bytes32 id;   \n    }\n\n    Item public item;\n\n    Location[] public locations;\n    Location public recentLocation;\n\n    mapping (bytes32 => Vehicle.vehicleInfo) vehitrack;\n    \n        \n    function vehicleTracking(bytes32 id) public {\n        // Limit gas\n        locations.length = 100;\n        item = Item({id: id});\n    }\n\n    function saveLocation (uint128 longitude, uint128 latitude) public {\n        locations.push(Location({delegate: msg.sender, longitude: longitude, latitude: latitude})\n        );\n    }\n\n    function getLocationHistory(uint256 idx) public constant returns (address delegate, uint128 longitude, uint128 latitude) {\n        Location storage loc = locations[idx];\n        return (loc.delegate, loc.longitude, loc.latitude);\n    }\n\n    function getLastLocation() public view returns (Location recentLocation) {\n        recentLocation = locations[locations.length - 1];\n        return (recentLocation);\n    }\n}",
  "sourcePath": "/home/anna/Desktop/FSTI/MOBI/contracts/Tracking.sol",
  "compiler": {
    "name": "solc",
    "version": "0.4.24+commit.e67f0147.Emscripten.clang"
  },
  "schemaVersion": "2.0.0",
  "updatedAt": "2018-12-20T14:06:49.821Z"
}