{
  "contractName": "Vehicle",
  "abi": [
    {
      "inputs": [],
      "payable": false,
      "stateMutability": "nonpayable",
      "type": "constructor"
    },
    {
      "constant": false,
      "inputs": [
        {
          "name": "vin",
          "type": "uint256"
        },
        {
          "name": "name",
          "type": "string"
        },
        {
          "name": "model",
          "type": "string"
        },
        {
          "name": "y",
          "type": "uint16"
        },
        {
          "name": "m",
          "type": "uint8"
        },
        {
          "name": "d",
          "type": "uint8"
        }
      ],
      "name": "setVehicle",
      "outputs": [],
      "payable": false,
      "stateMutability": "nonpayable",
      "type": "function"
    },
    {
      "constant": true,
      "inputs": [
        {
          "name": "vin",
          "type": "uint256"
        }
      ],
      "name": "getVehicleInfo",
      "outputs": [
        {
          "name": "",
          "type": "uint256"
        },
        {
          "name": "",
          "type": "string"
        },
        {
          "name": "",
          "type": "string"
        },
        {
          "name": "",
          "type": "uint16"
        },
        {
          "name": "",
          "type": "uint8"
        },
        {
          "name": "",
          "type": "uint8"
        }
      ],
      "payable": false,
      "stateMutability": "view",
      "type": "function"
    }
  ],
  "bytecode": "0x608060405234801561001057600080fd5b50336000806101000a81548173ffffffffffffffffffffffffffffffffffffffff021916908373ffffffffffffffffffffffffffffffffffffffff16021790555061078b806100606000396000f30060806040526004361061004c576000357c0100000000000000000000000000000000000000000000000000000000900463ffffffff168063af90d99714610051578063ece9e72114610132575b600080fd5b34801561005d57600080fd5b5061013060048036038101908080359060200190929190803590602001908201803590602001908080601f0160208091040260200160405190810160405280939291908181526020018383808284378201915050505050509192919290803590602001908201803590602001908080601f0160208091040260200160405190810160405280939291908181526020018383808284378201915050505050509192919290803561ffff169060200190929190803560ff169060200190929190803560ff169060200190929190505050610274565b005b34801561013e57600080fd5b5061015d60048036038101908080359060200190929190505050610465565b6040518087815260200180602001806020018661ffff1661ffff1681526020018560ff1660ff1681526020018460ff1660ff168152602001838103835288818151815260200191508051906020019080838360005b838110156101cd5780820151818401526020810190506101b2565b50505050905090810190601f1680156101fa5780820380516001836020036101000a031916815260200191505b50838103825287818151815260200191508051906020019080838360005b83811015610233578082015181840152602081019050610218565b50505050905090810190601f1680156102605780820380516001836020036101000a031916815260200191505b509850505050505050505060405180910390f35b6000809054906101000a900473ffffffffffffffffffffffffffffffffffffffff1673ffffffffffffffffffffffffffffffffffffffff163373ffffffffffffffffffffffffffffffffffffffff161415156102cf57600080fd5b6060604051908101604052808461ffff1681526020018360ff1681526020018260ff16815250600160008201518160000160006101000a81548161ffff021916908361ffff16021790555060208201518160000160026101000a81548160ff021916908360ff16021790555060408201518160000160036101000a81548160ff021916908360ff160217905550905050846005600088815260200190815260200160002060010190805190602001906103899291906106ba565b50836005600088815260200190815260200160002060020190805190602001906103b49291906106ba565b506001600560008881526020019081526020016000206000016000820160009054906101000a900461ffff168160000160006101000a81548161ffff021916908361ffff1602179055506000820160029054906101000a900460ff168160000160026101000a81548160ff021916908360ff1602179055506000820160039054906101000a900460ff168160000160036101000a81548160ff021916908360ff160217905550905050505050505050565b600060608060008060008060009054906101000a900473ffffffffffffffffffffffffffffffffffffffff1673ffffffffffffffffffffffffffffffffffffffff163373ffffffffffffffffffffffffffffffffffffffff161415156104ca57600080fd5b8660056000898152602001908152602001600020600101600560008a8152602001908152602001600020600201600560008b815260200190815260200160002060000160000160009054906101000a900461ffff16600560008c815260200190815260200160002060000160000160029054906101000a900460ff16600560008d815260200190815260200160002060000160000160039054906101000a900460ff16848054600181600116156101000203166002900480601f0160208091040260200160405190810160405280929190818152602001828054600181600116156101000203166002900480156106025780601f106105d757610100808354040283529160200191610602565b820191906000526020600020905b8154815290600101906020018083116105e557829003601f168201915b50505050509450838054600181600116156101000203166002900480601f01602080910402602001604051908101604052809291908181526020018280546001816001161561010002031660029004801561069e5780601f106106735761010080835404028352916020019161069e565b820191906000526020600020905b81548152906001019060200180831161068157829003601f168201915b5050505050935095509550955095509550955091939550919395565b828054600181600116156101000203166002900490600052602060002090601f016020900481019282601f106106fb57805160ff1916838001178555610729565b82800160010185558215610729579182015b8281111561072857825182559160200191906001019061070d565b5b509050610736919061073a565b5090565b61075c91905b80821115610758576000816000905550600101610740565b5090565b905600a165627a7a72305820c2b292afa059cb58bf7b107f579294e8263385f2a7d8bd2ba4943ac35491c0740029",
  "source": "pragma solidity ^0.4.20;\n\n/**\n * The vehicle contract stores the vehicle information...\n */\ncontract Vehicle {\n    \n    function Vehicle() public {\n        vehicle = msg.sender;\n        \n    }\n    \n    address vehicle;\n    \n    modifier onlyVehicle {\n        require(msg.sender == vehicle);\n        _;\n        }\n    //modifier onlyVehicle { if (msg.sender != vehicle) revert; _;}\n    \n    //Date struct to \n    struct Date {\n        uint16 year;\n        uint8 month;\n        uint8 day;\n    }\n    \n    //struct contains vehicle info\n    struct vehicleInfo {\n        Date date;\n        string owner;\n        string make;\n    }\n\n    Date date;\n    vehicleInfo vInfo;\n\n    //vin is considered unique to every vehicle\n    mapping(uint => vehicleInfo) vehicleList;\n\n    //Creat new vehicles\n    function setVehicle (uint vin, string name, string model, uint16 y, uint8 m, uint8 d) public onlyVehicle {\n        date = Date(y, m, d);\n        vehicleList[vin].owner = name;\n        vehicleList[vin].make = model;\n        vehicleList[vin].date = date; \n    }\n\n    //get vehicle information by id[vin]\n    function getVehicleInfo (uint vin) public onlyVehicle constant returns(uint, string, string, uint16, uint8, uint8) {\n        return (vin, vehicleList[vin].owner, vehicleList[vin].make, vehicleList[vin].date.year, vehicleList[vin].date.month, vehicleList[vin].date.day);        \n        }\n    \n    //function getVehicleVin () onlyVehicle public constant returns (uint) {\n      //  return vin;\n    //}\n} ",
  "sourcePath": "/home/anna/Desktop/FSTI/MOBI/contracts/Vehicle.sol",
  "compiler": {
    "name": "solc",
    "version": "0.4.24+commit.e67f0147.Emscripten.clang"
  },
  "schemaVersion": "2.0.0",
  "updatedAt": "2018-12-20T14:06:49.824Z"
}