{
  "contractName": "DateTime",
  "abi": [
    {
      "constant": true,
      "inputs": [
        {
          "name": "year",
          "type": "uint16"
        }
      ],
      "name": "isLeapYear",
      "outputs": [
        {
          "name": "",
          "type": "bool"
        }
      ],
      "payable": false,
      "stateMutability": "pure",
      "type": "function"
    },
    {
      "constant": true,
      "inputs": [
        {
          "name": "year",
          "type": "uint256"
        }
      ],
      "name": "leapYearsBefore",
      "outputs": [
        {
          "name": "",
          "type": "uint256"
        }
      ],
      "payable": false,
      "stateMutability": "pure",
      "type": "function"
    },
    {
      "constant": true,
      "inputs": [
        {
          "name": "month",
          "type": "uint8"
        },
        {
          "name": "year",
          "type": "uint16"
        }
      ],
      "name": "getDaysInMonth",
      "outputs": [
        {
          "name": "",
          "type": "uint8"
        }
      ],
      "payable": false,
      "stateMutability": "pure",
      "type": "function"
    },
    {
      "constant": true,
      "inputs": [
        {
          "name": "timestamp",
          "type": "uint256"
        }
      ],
      "name": "getYear",
      "outputs": [
        {
          "name": "",
          "type": "uint16"
        }
      ],
      "payable": false,
      "stateMutability": "pure",
      "type": "function"
    },
    {
      "constant": true,
      "inputs": [
        {
          "name": "timestamp",
          "type": "uint256"
        }
      ],
      "name": "getMonth",
      "outputs": [
        {
          "name": "",
          "type": "uint8"
        }
      ],
      "payable": false,
      "stateMutability": "pure",
      "type": "function"
    },
    {
      "constant": true,
      "inputs": [
        {
          "name": "timestamp",
          "type": "uint256"
        }
      ],
      "name": "getDay",
      "outputs": [
        {
          "name": "",
          "type": "uint8"
        }
      ],
      "payable": false,
      "stateMutability": "pure",
      "type": "function"
    },
    {
      "constant": true,
      "inputs": [
        {
          "name": "timestamp",
          "type": "uint256"
        }
      ],
      "name": "getHour",
      "outputs": [
        {
          "name": "",
          "type": "uint8"
        }
      ],
      "payable": false,
      "stateMutability": "pure",
      "type": "function"
    },
    {
      "constant": true,
      "inputs": [
        {
          "name": "timestamp",
          "type": "uint256"
        }
      ],
      "name": "getMinute",
      "outputs": [
        {
          "name": "",
          "type": "uint8"
        }
      ],
      "payable": false,
      "stateMutability": "pure",
      "type": "function"
    },
    {
      "constant": true,
      "inputs": [
        {
          "name": "timestamp",
          "type": "uint256"
        }
      ],
      "name": "getSecond",
      "outputs": [
        {
          "name": "",
          "type": "uint8"
        }
      ],
      "payable": false,
      "stateMutability": "pure",
      "type": "function"
    },
    {
      "constant": true,
      "inputs": [
        {
          "name": "timestamp",
          "type": "uint256"
        }
      ],
      "name": "getWeekday",
      "outputs": [
        {
          "name": "",
          "type": "uint8"
        }
      ],
      "payable": false,
      "stateMutability": "pure",
      "type": "function"
    },
    {
      "constant": true,
      "inputs": [
        {
          "name": "year",
          "type": "uint16"
        },
        {
          "name": "month",
          "type": "uint8"
        },
        {
          "name": "day",
          "type": "uint8"
        },
        {
          "name": "hour",
          "type": "uint8"
        },
        {
          "name": "minute",
          "type": "uint8"
        }
      ],
      "name": "toTimestamp",
      "outputs": [
        {
          "name": "timestamp",
          "type": "uint256"
        }
      ],
      "payable": false,
      "stateMutability": "pure",
      "type": "function"
    },
    {
      "constant": true,
      "inputs": [
        {
          "name": "year",
          "type": "uint16"
        },
        {
          "name": "month",
          "type": "uint8"
        },
        {
          "name": "day",
          "type": "uint8"
        }
      ],
      "name": "toTimestamp",
      "outputs": [
        {
          "name": "timestamp",
          "type": "uint256"
        }
      ],
      "payable": false,
      "stateMutability": "pure",
      "type": "function"
    },
    {
      "constant": true,
      "inputs": [
        {
          "name": "year",
          "type": "uint16"
        },
        {
          "name": "month",
          "type": "uint8"
        },
        {
          "name": "day",
          "type": "uint8"
        },
        {
          "name": "hour",
          "type": "uint8"
        },
        {
          "name": "minute",
          "type": "uint8"
        },
        {
          "name": "second",
          "type": "uint8"
        }
      ],
      "name": "toTimestamp",
      "outputs": [
        {
          "name": "timestamp",
          "type": "uint256"
        }
      ],
      "payable": false,
      "stateMutability": "pure",
      "type": "function"
    },
    {
      "constant": true,
      "inputs": [
        {
          "name": "year",
          "type": "uint16"
        },
        {
          "name": "month",
          "type": "uint8"
        },
        {
          "name": "day",
          "type": "uint8"
        },
        {
          "name": "hour",
          "type": "uint8"
        }
      ],
      "name": "toTimestamp",
      "outputs": [
        {
          "name": "timestamp",
          "type": "uint256"
        }
      ],
      "payable": false,
      "stateMutability": "pure",
      "type": "function"
    },
    {
      "constant": true,
      "inputs": [
        {
          "name": "i",
          "type": "uint256"
        }
      ],
      "name": "uinttostr",
      "outputs": [
        {
          "name": "",
          "type": "string"
        }
      ],
      "payable": false,
      "stateMutability": "pure",
      "type": "function"
    }
  ],
  "bytecode": "0x608060405234801561001057600080fd5b50610fa2806100206000396000f3006080604052600436106100db576000357c0100000000000000000000000000000000000000000000000000000000900463ffffffff16806324233393146100e05780633e239e1a146101865780634ac1ad78146101cd57806362ba96871461021457806365c728401461028d5780637f791833146102d45780638aa001fc146103405780638c8d98a0146103875780639054bdec146103e657806392d663131461046c578063a324ad24146104b5578063a6f0e577146104fc578063b199993714610545578063b238ad0e14610586578063fa93f883146105de575b600080fd5b3480156100ec57600080fd5b5061010b60048036038101908080359060200190929190505050610625565b6040518080602001828103825283818151815260200191508051906020019080838360005b8381101561014b578082015181840152602081019050610130565b50505050905090810190601f1680156101785780820380516001836020036101000a031916815260200191505b509250505060405180910390f35b34801561019257600080fd5b506101b16004803603810190808035906020019092919050505061077c565b604051808260ff1660ff16815260200191505060405180910390f35b3480156101d957600080fd5b506101f8600480360381019080803590602001909291905050506107a9565b604051808260ff1660ff16815260200191505060405180910390f35b34801561022057600080fd5b50610277600480360381019080803561ffff169060200190929190803560ff169060200190929190803560ff169060200190929190803560ff169060200190929190803560ff1690602001909291905050506107d0565b6040518082815260200191505060405180910390f35b34801561029957600080fd5b506102b8600480360381019080803590602001909291905050506107ec565b604051808260ff1660ff16815260200191505060405180910390f35b3480156102e057600080fd5b5061032a600480360381019080803561ffff169060200190929190803560ff169060200190929190803560ff169060200190929190803560ff169060200190929190505050610802565b6040518082815260200191505060405180910390f35b34801561034c57600080fd5b5061036b6004803603810190808035906020019092919050505061081d565b604051808260ff1660ff16815260200191505060405180910390f35b34801561039357600080fd5b506103d0600480360381019080803561ffff169060200190929190803560ff169060200190929190803560ff169060200190929190505050610833565b6040518082815260200191505060405180910390f35b3480156103f257600080fd5b50610456600480360381019080803561ffff169060200190929190803560ff169060200190929190803560ff169060200190929190803560ff169060200190929190803560ff169060200190929190803560ff16906020019092919050505061084e565b6040518082815260200191505060405180910390f35b34801561047857600080fd5b5061049760048036038101908080359060200190929190505050610af5565b604051808261ffff1661ffff16815260200191505060405180910390f35b3480156104c157600080fd5b506104e060048036038101908080359060200190929190505050610ba0565b604051808260ff1660ff16815260200191505060405180910390f35b34801561050857600080fd5b5061052b600480360381019080803561ffff169060200190929190505050610bb6565b604051808215151515815260200191505060405180910390f35b34801561055157600080fd5b5061057060048036038101908080359060200190929190505050610c37565b6040518082815260200191505060405180910390f35b34801561059257600080fd5b506105c2600480360381019080803560ff169060200190929190803561ffff169060200190929190505050610c70565b604051808260ff1660ff16815260200191505060405180910390f35b3480156105ea57600080fd5b5061060960048036038101908080359060200190929190505050610d3c565b604051808260ff1660ff16815260200191505060405180910390f35b60606000806060600080861415610673576040805190810160405280600181526020017f30000000000000000000000000000000000000000000000000000000000000008152509450610773565b8593505b60008414151561069d578280600101935050600a8481151561069557fe5b049350610677565b826040519080825280601f01601f1916602001820160405280156106d05781602001602082028038833980820191505090505b5091506001830390505b60008614151561076f57600a868115156106f057fe5b066030017f01000000000000000000000000000000000000000000000000000000000000000282828060019003935081518110151561072b57fe5b9060200101907effffffffffffffffffffffffffffffffffffffffffffffffffffffffffffff1916908160001a905350600a8681151561076757fe5b0495506106da565b8194505b50505050919050565b60006018603c808481151561078d57fe5b0481151561079757fe5b048115156107a157fe5b069050919050565b60006007600462015180848115156107bd57fe5b04018115156107c857fe5b069050919050565b60006107e18686868686600061084e565b905095945050505050565b60006107f782610d5d565b604001519050919050565b60006108138585858560008061084e565b9050949350505050565b6000603c8281151561082b57fe5b069050919050565b6000610845848484600080600061084e565b90509392505050565b600080610859610efe565b6107b291505b8861ffff168261ffff1610156108a25761087882610bb6565b1561088b576301e2850083019250610895565b6301e13380830192505b818060010192505061085f565b601f816000600c811015156108b357fe5b602002019060ff16908160ff16815250506108cd89610bb6565b156108f957601d816001600c811015156108e357fe5b602002019060ff16908160ff168152505061091c565b601c816001600c8110151561090a57fe5b602002019060ff16908160ff16815250505b601f816002600c8110151561092d57fe5b602002019060ff16908160ff1681525050601e816003600c8110151561094f57fe5b602002019060ff16908160ff1681525050601f816004600c8110151561097157fe5b602002019060ff16908160ff1681525050601e816005600c8110151561099357fe5b602002019060ff16908160ff1681525050601f816006600c811015156109b557fe5b602002019060ff16908160ff1681525050601f816007600c811015156109d757fe5b602002019060ff16908160ff1681525050601e816008600c811015156109f957fe5b602002019060ff16908160ff1681525050601f816009600c81101515610a1b57fe5b602002019060ff16908160ff1681525050601e81600a600c81101515610a3d57fe5b602002019060ff16908160ff1681525050601f81600b600c81101515610a5f57fe5b602002019060ff16908160ff1681525050600191505b8760ff168261ffff161015610ab757806001830361ffff16600c81101515610a9957fe5b602002015160ff166201518002830192508180600101925050610a75565b6001870360ff166201518002830192508560ff16610e1002830192508460ff16603c02830192508360ff168301925082925050509695505050505050565b600080600080600092506301e1338085811515610b0e57fe5b046107b261ffff16019150610b286107b261ffff16610c37565b610b358361ffff16610c37565b039050806301e285000283019250806107b2830361ffff16036301e1338002830192505b84831115610b9557610b6d60018303610bb6565b15610b80576301e2850083039250610b8a565b6301e13380830392505b600182039150610b59565b819350505050919050565b6000610bab82610d5d565b602001519050919050565b60008060048361ffff16811515610bc957fe5b0661ffff16141515610bde5760009050610c32565b600060648361ffff16811515610bf057fe5b0661ffff16141515610c055760019050610c32565b60006101908361ffff16811515610c1857fe5b0661ffff16141515610c2d5760009050610c32565b600190505b919050565b600060018203915061019082811515610c4c57fe5b04606483811515610c5957fe5b04600484811515610c6657fe5b0403019050919050565b600060018360ff161480610c87575060038360ff16145b80610c95575060058360ff16145b80610ca3575060078360ff16145b80610cb1575060088360ff16145b80610cbf5750600a8360ff16145b80610ccd5750600c8360ff16145b15610cdb57601f9050610d36565b60048360ff161480610cf0575060068360ff16145b80610cfe575060098360ff16145b80610d0c5750600b8360ff16145b15610d1a57601e9050610d36565b610d2382610bb6565b15610d3157601d9050610d36565b601c90505b92915050565b6000603c8083811515610d4b57fe5b04811515610d5557fe5b069050919050565b610d65610f22565b60008060008060009350610d7886610af5565b856000019061ffff16908161ffff1681525050610d9a6107b261ffff16610c37565b610dab866000015161ffff16610c37565b039250826301e285000284019350826107b286600001510361ffff16036301e133800284019350600191505b600c8260ff16111515610e2f57610df2828660000151610c70565b60ff1662015180029050858482011115610e1d5781856020019060ff16908160ff1681525050610e2f565b80840193508180600101925050610dd7565b600191505b610e4685602001518660000151610c70565b60ff168260ff16111515610e8d57858462015180011115610e785781856040019060ff16908160ff1681525050610e8d565b62015180840193508180600101925050610e34565b610e968661077c565b856060019060ff16908160ff1681525050610eb086610d3c565b856080019060ff16908160ff1681525050610eca8661081d565b8560a0019060ff16908160ff1681525050610ee4866107a9565b8560c0019060ff16908160ff168152505050505050919050565b61018060405190810160405280600c90602082028038833980820191505090505090565b60e060405190810160405280600061ffff168152602001600060ff168152602001600060ff168152602001600060ff168152602001600060ff168152602001600060ff168152602001600060ff16815250905600a165627a7a72305820cafb6909ba43c1ea90e4d8e4c86eb949015208a967ee0a8615e14adf2048dd340029",
  "source": "pragma solidity ^0.4.16;\n\ncontract DateTime {\n    /*\n     *  Date and Time utilities for ethereum contracts\n     *\n     */\n    struct _DateTime {\n        uint16 year;\n        uint8 month;\n        uint8 day;\n        uint8 hour;\n        uint8 minute;\n        uint8 second;\n        uint8 weekday;\n    }\n\n    uint constant DAY_IN_SECONDS = 86400;\n    uint constant YEAR_IN_SECONDS = 31536000;\n    uint constant LEAP_YEAR_IN_SECONDS = 31622400;\n\n    uint constant HOUR_IN_SECONDS = 3600;\n    uint constant MINUTE_IN_SECONDS = 60;\n\n    uint16 constant ORIGIN_YEAR = 1970;\n\n    function isLeapYear(uint16 year) public pure returns (bool) {\n        if (year % 4 != 0) {\n            return false;\n        }\n        if (year % 100 != 0) {\n            return true;\n        }\n        if (year % 400 != 0) {\n            return false;\n        }\n        return true;\n    }\n\n    function leapYearsBefore(uint year) public pure returns (uint) {\n        year -= 1;\n        return year / 4 - year / 100 + year / 400;\n    }\n\n    function getDaysInMonth(uint8 month, uint16 year) public pure returns (uint8) {\n        if (month == 1 || month == 3 || month == 5 || month == 7 || month == 8 || month == 10 || month == 12) {\n            return 31;\n        }\n        else if (month == 4 || month == 6 || month == 9 || month == 11) {\n            return 30;\n        }\n        else if (isLeapYear(year)) {\n            return 29;\n        }\n        else {\n            return 28;\n        }\n    }\n\n    function parseTimestamp(uint timestamp) internal pure returns (_DateTime dt) {\n        uint secondsAccountedFor = 0;\n        uint buf;\n        uint8 i;\n\n        // Year\n        dt.year = getYear(timestamp);\n        buf = leapYearsBefore(dt.year) - leapYearsBefore(ORIGIN_YEAR);\n\n        secondsAccountedFor += LEAP_YEAR_IN_SECONDS * buf;\n        secondsAccountedFor += YEAR_IN_SECONDS * (dt.year - ORIGIN_YEAR - buf);\n\n        // Month\n        uint secondsInMonth;\n        for (i = 1; i <= 12; i++) {\n            secondsInMonth = DAY_IN_SECONDS * getDaysInMonth(i, dt.year);\n            if (secondsInMonth + secondsAccountedFor > timestamp) {\n                dt.month = i;\n                break;\n            }\n            secondsAccountedFor += secondsInMonth;\n        }\n\n        // Day\n        for (i = 1; i <= getDaysInMonth(dt.month, dt.year); i++) {\n            if (DAY_IN_SECONDS + secondsAccountedFor > timestamp) {\n                dt.day = i;\n                break;\n            }\n            secondsAccountedFor += DAY_IN_SECONDS;\n        }\n\n        // Hour\n        dt.hour = getHour(timestamp);\n\n        // Minute\n        dt.minute = getMinute(timestamp);\n\n        // Second\n        dt.second = getSecond(timestamp);\n\n        // Day of week.\n        dt.weekday = getWeekday(timestamp);\n    }\n\n    function getYear(uint timestamp) public pure returns (uint16) {\n        uint secondsAccountedFor = 0;\n        uint16 year;\n        uint numLeapYears;\n\n        // Year\n        year = uint16(ORIGIN_YEAR + timestamp / YEAR_IN_SECONDS);\n        numLeapYears = leapYearsBefore(year) - leapYearsBefore(ORIGIN_YEAR);\n\n        secondsAccountedFor += LEAP_YEAR_IN_SECONDS * numLeapYears;\n        secondsAccountedFor += YEAR_IN_SECONDS * (year - ORIGIN_YEAR - numLeapYears);\n\n        while (secondsAccountedFor > timestamp) {\n            if (isLeapYear(uint16(year - 1))) {\n                secondsAccountedFor -= LEAP_YEAR_IN_SECONDS;\n            }\n            else {\n                secondsAccountedFor -= YEAR_IN_SECONDS;\n            }\n            year -= 1;\n        }\n        return year;\n    }\n\n    function getMonth(uint timestamp) public pure returns (uint8) {\n        return parseTimestamp(timestamp).month;\n    }\n\n    function getDay(uint timestamp) public pure returns (uint8) {\n        return parseTimestamp(timestamp).day;\n    }\n\n    function getHour(uint timestamp) public pure returns (uint8) {\n        return uint8((timestamp / 60 / 60) % 24);\n    }\n\n    function getMinute(uint timestamp) public pure returns (uint8) {\n        return uint8((timestamp / 60) % 60);\n    }\n\n    function getSecond(uint timestamp) public pure returns (uint8) {\n        return uint8(timestamp % 60);\n    }\n\n    function getWeekday(uint timestamp) public pure returns (uint8) {\n        return uint8((timestamp / DAY_IN_SECONDS + 4) % 7);\n    }\n\n    function toTimestamp(uint16 year, uint8 month, uint8 day) public pure returns (uint timestamp) {\n        return toTimestamp(year, month, day, 0, 0, 0);\n    }\n\n    function toTimestamp(uint16 year, uint8 month, uint8 day, uint8 hour) public pure returns (uint timestamp) {\n        return toTimestamp(year, month, day, hour, 0, 0);\n    }\n\n    function toTimestamp(uint16 year, uint8 month, uint8 day, uint8 hour, uint8 minute) public pure returns (uint timestamp) {\n        return toTimestamp(year, month, day, hour, minute, 0);\n    }\n\n    function toTimestamp(uint16 year, uint8 month, uint8 day, uint8 hour, uint8 minute, uint8 second) public pure returns (uint timestamp) {\n        uint16 i;\n\n        // Year\n        for (i = ORIGIN_YEAR; i < year; i++) {\n            if (isLeapYear(i)) {\n                timestamp += LEAP_YEAR_IN_SECONDS;\n            }\n            else {\n                timestamp += YEAR_IN_SECONDS;\n            }\n        }\n\n        // Month\n        uint8[12] memory monthDayCounts;\n        monthDayCounts[0] = 31;\n        if (isLeapYear(year)) {\n            monthDayCounts[1] = 29;\n        }\n        else {\n            monthDayCounts[1] = 28;\n        }\n        monthDayCounts[2] = 31;\n        monthDayCounts[3] = 30;\n        monthDayCounts[4] = 31;\n        monthDayCounts[5] = 30;\n        monthDayCounts[6] = 31;\n        monthDayCounts[7] = 31;\n        monthDayCounts[8] = 30;\n        monthDayCounts[9] = 31;\n        monthDayCounts[10] = 30;\n        monthDayCounts[11] = 31;\n\n        for (i = 1; i < month; i++) {\n            timestamp += DAY_IN_SECONDS * monthDayCounts[i - 1];\n        }\n\n        // Day\n        timestamp += DAY_IN_SECONDS * (day - 1);\n\n        // Hour\n        timestamp += HOUR_IN_SECONDS * (hour);\n\n        // Minute\n        timestamp += MINUTE_IN_SECONDS * (minute);\n\n        // Second\n        timestamp += second;\n\n        return timestamp;\n\n    }\n\n    function uinttostr(uint i) public pure returns (string){\n        if (i == 0) return \"0\";\n        uint j = i;\n        uint length;\n        while (j != 0){\n            length++;\n            j /= 10;\n        }\n        bytes memory bstr = new bytes(length);\n        uint k = length - 1;\n        while (i != 0){\n            bstr[k--] = byte(48 + i % 10);\n            i /= 10;\n        }\n        return string(bstr);\n    }\n\n\n}",
  "sourcePath": "/home/anna/Desktop/secondStage/project1folder/contracts/DateTime.sol",
  "compiler": {
    "name": "solc",
    "version": "0.4.24+commit.e67f0147.Emscripten.clang"
  },
  "schemaVersion": "2.0.0",
  "updatedAt": "2018-10-05T11:10:51.866Z"
}